:100000000C9476000C949E000C949E000C949E0020
:100010000C949E000C949E000C949E000C949E00E8
:100020000C949E000C949E000C949E000C949E00D8
:100030000C949E000C949E000C949E000C949E00C8
:100040000C94B3030C949E000C949E000C949E00A0
:100050000C949E000C949E000C949E000C949E00A8
:100060000C94FD030C949E009A07AF07AF07AE07F0
:10007000AF078C07AF07AF07AF078E07AF07AF0714
:10008000A107AC07AA07AF07AF07AF07A80731372B
:100090003A30333A3039004E6F76202038203230F3
:1000A00032310000000000250028002B0004040469
:1000B0000404040404020202020202030303030311
:1000C00003010204081020408001020408102001EE
:1000D00002040810200000000800020100000304D0
:1000E00007000000000000000000D10911241FBE1D
:1000F000CFEFD8E0DEBFCDBF22E0A8ECB1E001C079
:100100001D92A33AB207E1F711E0A0E0B1E0E4EEFE
:10011000FDE102C005900D92A83CB107D9F710E0AF
:10012000C6E7D0E004C02197FE010E943D0AC53712
:10013000D107C9F70E944B060C94F00E0C940000F6
:10014000CF92DF92EF92FF920F931F93CF93DF93A3
:100150006C017A018B01C0E0D0E0CE15DF0589F09B
:10016000D8016D918D01D601ED91FC910190F08146
:10017000E02DC6010995892B11F47E0102C021965C
:10018000ECCFC701DF91CF911F910F91FF90EF90BE
:10019000DF90CF9008953FB7F8948091340290910A
:1001A0003502A0913602B091370226B5A89B05C052
:1001B0002F3F19F00196A11DB11D3FBFBA2FA92FE6
:1001C000982F8827820F911DA11DB11DBC01CD0163
:1001D00042E0660F771F881F991F4A95D1F708954F
:1001E0008F929F92AF92BF92CF92DF92EF92FF9247
:1001F0006B017C010E94CB004B015C01C114D10456
:10020000E104F104F1F00E94CB00DC01CB0188197C
:100210009909AA09BB09883E9340A105B10570F36D
:1002200021E0C21AD108E108F10888EE880E83E0C7
:10023000981EA11CB11CC114D104E104F10419F7EA
:10024000DDCFFF90EF90DF90CF90BF90AF909F9069
:100250008F900895FC01908190539A3008F090E0BF
:10026000818180532AE0929F800D1124089585EDAD
:100270008093BC008091BC0084FDFCCF109264028E
:10028000089540910A02262F30E0240F311D2132BB
:100290003105DCF4209164022430C9F4FC0180E0D3
:1002A00090E0861758F430910A022191DC01A851A0
:1002B000BE4FA30FB11D2C930196F3CF80910A027C
:1002C000680F60930A0280E0089581E0089582E05B
:1002D00008950895E091660280916502E81730F470
:1002E000F0E0E959FD4F808190E008958FEF9FEF96
:1002F00008959091660280916502981750F4E92F55
:10030000F0E0E959FD4F208130E09F5F9093660255
:1003100002C02FEF3FEFC90108958091650290E080
:1003200020916602821B91090895CF92DF92EF928D
:10033000FF920F931F93CF93DF937C01262F972F6C
:100340008A0180913B02882391F0C62FD72F6E013E
:10035000C40ED51ECC15DD0571F06991D701ED9164
:10036000FC910190F081E02DC7010995F3CF642F36
:10037000822F0E944101C801DF91CF911F910F91FF
:10038000FF90EF90DF90CF900895CF93DF931F926F
:10039000CDB7DEB7698320913B022223D1F02091B3
:1003A0003802203240F021E030E0FC013383228328
:1003B00080E090E015C080913902E82FF0E0E8532A
:1003C000FE4F998190838F5F80933902809338022A
:1003D00005C061E0CE0101960E94410181E090E0FC
:1003E0000F90DF91CF9108952091380290913A02B9
:1003F000213208F04AC0809164028111FCCF32E0C2
:100400003093640231E0309363023FEF3093620235
:100410001092610220936002A8ECB1E04EE352E03A
:10042000FA013E2F341B321718F43D913193F9CF66
:1004300010925F0220915F02990F922B90935F02BE
:1004400090915E02913061F410925E0290915F0291
:100450009093BB009091BC0093FDF8CF95EC01C048
:1004600095EE9093BC00909164029230E1F39091EC
:1004700062029F3F79F080916202803241F0809168
:100480006202803331F084E005C081E003C082E085
:1004900001C083E0109239021092380210923B02A0
:1004A0000895FC01248131E030933B0220933A020D
:1004B00010923902109238028385682B87E892E007
:1004C0000E94C50187E892E00C94F4010F931F93FA
:1004D000CF938C01C62F0E9451026C2F6460C8011B
:1004E0000E9451026C2F6B7FC8010E94510283EC65
:1004F00090E00197F1F7CF911F910F910895089522
:1005000080E090E00895FC01808191810C94D80AEC
:100510000E943A0C0F931F93CF93DF93EC018881D5
:100520009981009729F02A813B812617370788F4A3
:100530008B016F5F7F4F0E94700B009761F0998372
:1005400088831B830A832C813D81232B11F4FC01BA
:10055000108281E001C080E0DF91CF911F910F9167
:100560000895EF92FF920F931F93CF93DF93EC01C7
:10057000FB0184819581E080F1800C811D81E11473
:10058000F104B1F0009701F1080F191FB801CE0175
:100590000E948A02882361F0288139818C819D81A3
:1005A000B701820F931F0E94480C1D830C830CC05F
:1005B00088819981009711F00E94D80A19821882C7
:1005C0001D821C821B821A82CE01DF91CF911F9166
:1005D0000F91FF90EF900895EF92FF920F931F936A
:1005E000CF93DF93EC017B018A01BA010E948A025A
:1005F0002881398181110DC02115310519F0C901FA
:100600000E94D80A198218821D821C821B821A82BB
:1006100006C01D830C83B701C9010E94480CCE019E
:10062000DF91CF911F910F91FF90EF900895FC0102
:100630001182108213821282158214826115710553
:1006400051F0FB0101900020E9F73197AF01461B03
:10065000570B0C94EC020895EF92FF920F931F93A7
:10066000CF93DF93CDB7DEB769970FB6F894DEBFAF
:100670000FBECDBF8C01FB01CE0101967C01413044
:10068000510591F092818181208142305105F1F430
:100690001F929F931F928F9330E02053384F3F93C8
:1006A0002F938CE291E00BC085811F928F93848100
:1006B0001F928F9383811F928F9386E491E09F9383
:1006C0008F93FF92EF920E944F0C1AC035811F92B8
:1006D0003F9334811F923F9333811F923F931F9228
:1006E0009F931F928F9330E02053384F3F932F9367
:1006F00089E391E09F938F93FF92EF920E944F0CBA
:100700000FB6F894DEBF0FBECDBFB701C8010E947F
:100710001703C80169960FB6F894DEBF0FBECDBFB0
:10072000DF91CF911F910F91FF90EF90089510925C
:10073000640281E08093630210925E0282E10E9473
:10074000EC0583E10E94EC05E9EBF0E080818E7F0F
:10075000808380818D7F808388E48093B80085E4E6
:100760008093BC0008951F920F920FB60F92112430
:100770002F933F938F939F93AF93BF9380913002BA
:1007800090913102A0913202B091330230912F0248
:1007900023E0230F2D3720F40196A11DB11D05C0C4
:1007A00026E8230F0296A11DB11D20932F028093EE
:1007B000300290933102A0933202B09333028091C1
:1007C000340290913502A0913602B0913702019621
:1007D000A11DB11D8093340290933502A09336027F
:1007E000B0933702BF91AF919F918F913F912F911D
:1007F0000F900FBE0F901F9018951F920F920FB67B
:100800000F9211242F933F934F935F936F937F9396
:100810008F939F93AF93BF93EF93FF938091B90012
:10082000887F803609F49CC068F5883209F45BC083
:1008300090F4803109F454C038F4882309F4F6C0E8
:10084000883009F44DC0F6C0883109F44CC08032BC
:1008500009F45DC0EFC0803409F468C048F4803307
:1008600009F455C0883309F0E5C080936202D8C00E
:10087000803509F44FC0883509F45DC0883409F02B
:10088000D9C0D6C0883909F4C7C0A8F4883709F49C
:1008900067C038F4883609F463C0803709F460C053
:1008A000C9C0883809F4B8C0803909F45FC08038FD
:1008B00009F0C0C05BC0803B09F486C038F4803AC0
:1008C00009F466C0883A09F47FC0B4C0803C09F4DA
:1008D000A7C0883C09F4A4C0883B09F48AC0AAC018
:1008E00080915F0210C09091610280916002981720
:1008F00070F5E091610281E08E0F80936102F0E07B
:10090000E25CFD4F80818093BB0085EC86C08093C4
:1009100062028EC0E091610281E08E0F80936102DD
:100920008091BB00F0E0E25CFD4F8083909161021A
:10093000809160026EC0E091610281E08E0F809331
:1009400061028091BB00F0E0E25CFD4F808380910A
:10095000630281116DC081E080935E0284EA61C010
:1009600083E08093640210922E02CFCF80912E02FA
:10097000803208F051C0E0912E0281E08E0F80930A
:100980002E028091BB00F0E0E25FFD4F8083BDCF7F
:1009900085EC8093BC001092640280912E0280321C
:1009A00030F4E0912E02F0E0E25FFD4F10826091A2
:1009B0002E0270E0E0910C02F0910D028EE092E0C8
:1009C000099510922E0236C084E080936402109242
:1009D0000B0210920A02E0910802F09109020995B7
:1009E00080910A02811105C081E080930A02109271
:1009F000E801E0910B0281E08E0F80930B02F0E0A2
:100A0000E851FE4F80818093BB0090910B02809152
:100A10000A02981708F479CF85E88093BC000AC0D1
:100A200085EC8093BC001092640204C010926202B4
:100A30000E943701FF91EF91BF91AF919F918F91EC
:100A40007F916F915F914F913F912F910F900FBECA
:100A50000F901F901895FF920F931F93CF93DF93E2
:100A60001F92CDB7DEB78C01F62E962F907F692F9F
:100A7000642BC80149830E94660280E1F89EB001A0
:100A800011244981642BC8010F90DF91CF911F91F0
:100A90000F91FF900C94660241E00E942B0581E0CB
:100AA00090E00895CF93DF93009779F0FC010190D7
:100AB0000020E9F73197AF01481B590BBC0183E9CE
:100AC00092E00E94A000EC0102C0C0E0D0E042E051
:100AD00050E065EC71E083E992E00E94A0008C0F89
:100AE0009D1FDF91CF910895809164028111FCCF09
:100AF000862F613208F080E291E090936402909337
:100B000063022FEF2093620210926102280F20935C
:100B1000600290935F0290915F02906D90935F02EC
:100B200090915E02913061F410925E0290915F02AA
:100B30009093BB009091BC0093FDF8CF95EC01C061
:100B400095EE9093BC00909164029130E1F3909106
:100B50006102981710F480916102AEE3B2E027E6DB
:100B600032E0F9019E2F921B981718F49D919193F2
:100B7000F9CF10926602809365020895CF93DF93B8
:100B8000CDB7DEB728970FB6F894DEBF0FBECDBF46
:100B900098E0E6E0F1E0DE01119601900D929A9561
:100BA000E1F790919B02981710F48FEF890FFE01E7
:100BB0003196E80FF11DE80FF11D6081606840E09B
:100BC00083E992E028960FB6F894DEBF0FBECDBF42
:100BD000DF91CF910C942B0590E0FC01EB52FF4F7D
:100BE0002491FC01EF53FF4F3491FC01E355FF4F7B
:100BF000E491EE23B1F1222339F1233091F038F45E
:100C00002130A9F0223001F584B58F7D12C0273044
:100C100091F02830A1F02430B9F4809180008F7DCC
:100C200003C0809180008F77809380000DC084B5D1
:100C30008F7784BD09C08091B0008F7703C0809109
:100C4000B0008F7D8093B000F0E0EE0FFF1FED55F8
:100C5000FF4FA591B4918FB7F894EC913E2B3C9344
:100C60008FBF0895CF93DF93FC014481558160814C
:100C7000718183E992E00E94A000EC0142E050E023
:100C800065EC71E083E992E00E94A0008C0F9D1F4B
:100C9000DF91CF910895CF93DF93CDB7DEB76D97F6
:100CA0000FB6F894DEBF0FBECDBF789484B58260D6
:100CB00084BD84B5816084BD85B5826085BD85B500
:100CC000816085BD80916E00816080936E0010927E
:100CD00081008091810082608093810080918100F9
:100CE000816080938100809180008160809380008A
:100CF0008091B10084608093B1008091B0008160E8
:100D00008093B00080917A00846080937A00809113
:100D10007A00826080937A0080917A00816080936B
:100D20007A0080917A00806880937A001092C100E6
:100D300010926602109265021092390210923802E7
:100D40000E9497031092980280919D02823018F0C1
:100D500098E09093980280939B0262E370E080E0B9
:100D600090E00E94F00060919E0283E992E00E9470
:100D7000510268EE73E080E090E00E94F00060E3D2
:100D800083E992E00E9466029BE4E92E96E4F92E44
:100D9000C7010197F1F760E383E992E00E946602E0
:100DA000C7010197F1F760E383E992E00E946602D0
:100DB00083E592E00197F1F760E283E992E00E9417
:100DC000660260919802606240E083E992E00E94CE
:100DD0002B0584E08093990240E06CE083E992E087
:100DE0000E942B0540E061E083E992E00E942B0520
:100DF0002BE3E22E2FE1F22EC7010197F1F782E0FB
:100E000080939A0240E066E083E992E00E942B051D
:100E100040E062E083E992E00E942B05C701019760
:100E2000F1F788E080939E0260E083E992E00E94FF
:100E3000510280E00E94BE0587E892E090933D0257
:100E400080933C0210926602109265021092390261
:100E5000109238020E94970381E080933B0288E65B
:100E600080933A0280913C0290913D020E94F401ED
:100E700081118FC281E080933B0288E680933A0221
:100E8000109239021092380280913C0290913D02FA
:100E9000DC01ED91FC910190F081E02D60E009957D
:100EA00080913C0290913D020E94F40161E070E06B
:100EB00080913C0290913D020E94740580913C0219
:100EC00090913D02DC01ED91FC910284F385E02DCF
:100ED000099587FF0DC185E591E00E9452054BE021
:100EE00050E067E970E0CE0101960E94F109CE0161
:100EF0000A960E942A01082FE9814E2FEE0F550B0A
:100F0000660B770BFA01E154F109E331F10538F58D
:100F1000EC5CFF4F0C943D0A12E021C08A818136BF
:100F200029F08B818E3621F017E019C011E017C02F
:100F300016E015C08B81823711F018E010C014E064
:100F40000EC08B81823711F015E009C013E007C095
:100F500019E005C01AE003C01BE001C01CE0CE018F
:100F600005960E942A01E82E48E050E06EE870E005
:100F7000CE0101960E94F109CE0101960E942A013C
:100F8000D82ECE0104960E942A01B82ECE010796D3
:100F90000E942A01A82E81E080933B0288E680937C
:100FA0003A02109239021092380280913C029091DC
:100FB0003D02DC01ED91FC910190F081E02D60E0BB
:100FC0000995A0913C02B0913D02ED91FC911197E1
:100FD0008AE0F82E8A2D6F2D0E94310A482F880F43
:100FE000480F440F642F6A0D0190F081E02DCD0170
:100FF0000995A0913C02B0913D02ED91FC911197B1
:101000008B2D6F2D0E94310A382F880F380F330F28
:10101000632F6B0D0190F081E02DCD010995A0911A
:101020003C02B0913D02ED91FC9111978D2D6F2DF9
:101030000E94310A282F880F280F220F622F6D0D72
:101040000190F081E02DCD01099580913C029091B5
:101050003D02DC01ED91FC910190F081E02D60E01A
:101060000995A0913C02B0913D02ED91FC91119740
:101070008E2D6F2D0E94310A982F880F980F990F8F
:10108000692F6E0D0190F081E02DCD010995A091A1
:101090003C02B0913D02ED91FC911197812F6F2D93
:1010A0000E94310A982F880F980F990F692F610FAE
:1010B0000190F081E02DCD010995A0913C02B09105
:1010C0003D02ED91FC911197802F6F2D0E94310A06
:1010D000682F880F680F660F600F0190F081E02D78
:1010E000CD01099580913C0290913D020E94F4014E
:1010F0001AEFE0E0AE2EE0E0BE2ECC24C394F8E67A
:101100009F2EC0923B0290923A02109239021092A6
:10111000380280913C0290913D02DC01ED91FC91FE
:101120000190F081E02D60E0099580913C02909162
:101130003D020E94F40167E070E080913C029091D2
:101140003D020E94740580913C0290913D02DC01B9
:10115000ED91FC910284F385E02D09958F77982F0E
:1011600092959F70082F919F000D112480913C0251
:1011700090913D02DC01ED91FC910284F385E02D1C
:1011800009959C01332794E0359527959A95E1F7C9
:10119000F82E129FF00C112480913C0290913D0298
:1011A000DC01ED91FC910284F385E02D09959C0111
:1011B000332744E0359527954A95E1F7E82E129FAD
:1011C000E00C112480913C0290913D02DC01ED91F4
:1011D000FC910284F385E02D099580913C02909169
:1011E0003D02DC01ED91FC910284F385E02D09952F
:1011F0009C01332754E0359527955A95E1F7D82E71
:10120000129FD00C112480913C0290913D02DC0190
:10121000ED91FC910284F385E02D09959C01332723
:1012200064E0359527956A95E1F7882E129F800C2A
:10123000112480913C0290913D02DC01ED91FC91E2
:101240000284F385E02D09959C01332774E03595E0
:1012500027957A95E1F7129F800D1124888F898E4A
:10126000DA8EEB8EFC8E0D8F81E00E94BE0540E091
:1012700050E0BE01685E7F4FCE0101960E942C03B4
:101280006DE771E0CE0142960E9417031D861C8611
:101290001F861E86198A188A6A897B8961157105DD
:1012A00031F04E895F89CE010C960E94EC02BE019E
:1012B0006F5F7F4FCE010C960E94B1020E943206F2
:1012C000CE010C960E948302CE0142960E948302B8
:1012D000CE0101960E94830282E00E94BE0542E098
:1012E00050E0BE01685E7F4FCE0101960E942C0344
:1012F00068E971E0CE0142960E9417031D861C86A4
:101300001F861E86198A188A6A897B89611571056C
:1013100031F04E895F89CE010C960E94EC02BE012D
:101320006F5F7F4FCE010C960E94B1020E94320681
:10133000CE010C960E948302CE0142960E94830247
:10134000CE0101960E94830283E00E94BE0541E027
:1013500050E0BE01685E7F4FCE0101960E942C03D3
:10136000CE0101960E943206CE0101960E948302B0
:1013700086EC91E00E94520568EE73E080E090E018
:101380000E94F000A114B10409F4BBCE0E94000039
:10139000B8CE80E00E94BE0583EB91E00E9452052A
:1013A00069CDE7E8F2E01382128288EE93E0A0E0D4
:1013B000B0E084839583A683B78382E191E0918333
:1013C0008083E3E9F2E01382128284E291E0918368
:1013D000808380E2848384E1818784E0828713862E
:1013E0000895FB01DC0102C005900D924150504070
:1013F000D8F708952F923F924F925F926F927F920B
:101400008F929F92AF92BF92CF92DF92EF92FF9214
:101410000F931F93CF93DF93CDB7DEB7CA1BDB0BC0
:101420000FB6F894DEBF0FBECDBF09942A88398865
:1014300048885F846E847D848C849B84AA84B9846C
:10144000C884DF80EE80FD800C811B81AA81B98178
:10145000CE0FD11D0FB6F894DEBF0FBECDBFED018C
:101460000895991B79E004C0991F961708F0961B00
:10147000881F7A95C9F780950895EE0FFF1F059094
:10148000F491E02D0994CF93DF938230910510F40D
:1014900082E090E0E091A102F091A20220E030E031
:1014A000C0E0D0E0309711F14081518148175907D1
:1014B000C0F04817590761F482819381209719F091
:1014C0009B838A832BC09093A2028093A10226C0A3
:1014D0002115310519F04217530718F49A01BE017E
:1014E000DF01EF010280F381E02DDCCF2115310512
:1014F00009F1281B390B2430310590F412968D9197
:101500009C9113976115710521F0FB0193838283F0
:1015100004C09093A2028093A102FD01329644C0C0
:10152000FD01E20FF31F81939193225031092D9316
:101530003C933AC020919F023091A002232B41F4AA
:1015400020910201309103013093A00220939F0269
:1015500020910001309101012115310541F42DB791
:101560003EB74091040150910501241B350BE091D9
:101570009F02F091A002E217F307A0F42E1B3F0B8D
:101580002817390778F0AC014E5F5F4F24173507F5
:1015900048F04E0F5F1F5093A00240939F0281932B
:1015A000919302C0E0E0F0E0CF01DF91CF91089588
:1015B0000F931F93CF93DF93009709F48CC0FC0126
:1015C0003297138212820091A1021091A20201159A
:1015D000110581F420813181820F931F20919F0298
:1015E0003091A0022817390779F5F093A002E09313
:1015F0009F0271C0D80140E050E0AE17BF0750F421
:1016000012962D913C911397AD012115310509F1E9
:10161000D901F3CF9D01DA01338322836081718187
:10162000860F971F8217930769F4EC01288139818F
:10163000260F371F2E5F3F4F318320838A819B8186
:1016400093838283452B29F4F093A202E093A102B5
:1016500042C01396FC93EE931297ED014991599174
:101660009E01240F351FE217F30771F480819181E9
:10167000840F951F029611969C938E93828193817D
:1016800013969C938E931297E0E0F0E0D8011296A7
:101690008D919C911397009719F0F8018C01F6CF6A
:1016A0008D919C9198012E5F3F4F820F931F209147
:1016B0009F023091A0022817390769F4309729F466
:1016C0001092A2021092A10202C013821282109301
:1016D000A00200939F02DF91CF911F910F91089577
:1016E000A0E0B0E0E6E7FBE00C94FE09EC01009717
:1016F00021F4CB010E94430AB8C0FC01E60FF71F9A
:101700009C0122503109E217F30708F4ACC0D9015B
:101710000D911C91119706171707B0F005301105B0
:1017200008F49FC0C80104978617970708F499C06A
:1017300002501109061B170B019311936D937C93B3
:10174000CF010E94D80A8DC05B01A01AB10A4C01DA
:10175000800E911EA091A102B091A20240E050E043
:10176000E12CF12C109709F44AC0A815B905D1F560
:101770006D907C901197630182E0C80ED11CCA1451
:10178000DB0480F1A3014A195B096A0182E0C80EFB
:10179000D11C1296BC9012971396AC91B5E0CB1663
:1017A000D10440F0B282A38351834083D9016D9369
:1017B0007C930AC00E5F1F4FC301800F911FF90178
:1017C00091838083EB2DFA2FE114F10431F0D701DE
:1017D0001396FC93EE93129744C0F093A202E09309
:1017E000A1023FC08D919C9111974817590708F4A9
:1017F000AC017D0112960D90BC91A02DB3CF8091CC
:101800009F029091A00288159905E1F446175707A9
:10181000C8F48091000190910101009741F48DB7C7
:101820009EB74091040150910501841B950BE81768
:10183000F907C8F4F093A002E0939F02F9017183C5
:1018400060830FC0CB010E94430A7C01009759F0CE
:10185000A801BE010E943F0CCE010E94D80AC70118
:1018600004C0CE0102C080E090E0CDB7DEB7EEE06C
:101870000C941A0A81E090E0F8940C94F00EFB01AD
:10188000DC0102C001900D9241505040D8F70895FC
:10189000FB01DC0101900D920020E1F70895AEE01C
:1018A000B0E0E5E5FCE00C94080A0D891E8986E0AD
:1018B0008C831A8309838FEF9FE79E838D83AE010C
:1018C000475E5F4F6F89788DCE0101960E94720C42
:1018D0002F813885F801E20FF31F10822E96E4E085
:1018E0000C94240AACE0B0E0E8E7FCE00C94FA09C0
:1018F0007C016B018A01FC0117821682838181FFC2
:10190000BDC1CE0101964C01F7019381F60193FD13
:10191000859193FF81916F01882309F4ABC18532D2
:1019200039F493FD859193FF81916F01853229F4FC
:10193000B70190E00E945A0EE7CF512C312C20E0E5
:101940002032A0F48B3269F030F4803259F08332C7
:1019500069F420612CC08D3239F0803339F4216074
:1019600026C02260246023C0286021C027FD27C034
:1019700030ED380F3A3078F426FF06C0FAE05F9E6B
:10198000300D1124532E13C08AE0389E300D1124DF
:10199000332E20620CC08E3221F426FD6BC12064F0
:1019A00006C08C3611F4206802C0883641F4F60176
:1019B00093FD859193FF81916F018111C1CF982F84
:1019C0009F7D9554933028F40C5F1F4FFFE3F983FC
:1019D0000DC0833631F0833771F0833509F05BC079
:1019E00022C0F801808189830E5F1F4F44244394F5
:1019F000512C540115C03801F2E06F0E711CF80132
:101A0000A080B18026FF03C0652D70E002C06FEF9B
:101A10007FEFC5012C870E944F0E2C0183012C857E
:101A20002F77222E17C03801F2E06F0E711CF801DB
:101A3000A080B18026FF03C0652D70E002C06FEF6B
:101A40007FEFC5012C870E94440E2C012C85206855
:101A5000222E830123FC1BC0832D90E048165906DB
:101A6000B0F4B70180E290E00E945A0E3A94F4CFAD
:101A7000F50127FC859127FE81915F01B70190E078
:101A80000E945A0E31103A94F1E04F1A5108411455
:101A9000510471F7E5C0843611F0893639F5F80143
:101AA00027FF07C060817181828193810C5F1F4F86
:101AB00008C060817181072E000C880B990B0E5FA6
:101AC0001F4F2F76722E97FF09C0909580957095C5
:101AD00061957F4F8F4F9F4F2068722E2AE030E034
:101AE000A4010E94920EA82EA81844C0853729F49C
:101AF0002F7EB22E2AE030E025C0F22FF97FBF2ED4
:101B00008F36C1F018F4883579F0B4C0803719F0F9
:101B1000883721F0AFC02F2F2061B22EB4FE0DC048
:101B20008B2D8460B82E09C024FF0AC09F2F9660B9
:101B3000B92E06C028E030E005C020E130E002C048
:101B400020E132E0F801B7FE07C060817181828137
:101B500093810C5F1F4F06C06081718180E090E02F
:101B60000E5F1F4FA4010E94920EA82EA818FB2DF5
:101B7000FF777F2E76FE0BC0372D3E7FA51450F4E5
:101B800074FE0AC072FC08C0372D3E7E05C0BA2C18
:101B9000372D03C0BA2C01C0B52C34FF0DC0FE0197
:101BA000EA0DF11D8081803311F4397E09C032FFC6
:101BB00006C0B394B39404C0832F867809F0B3941D
:101BC00033FD13C030FF06C05A2CB31418F4530C65
:101BD0005B18B32CB31468F4B70180E290E03C8743
:101BE0000E945A0EB3943C85F5CFB31410F43B1801
:101BF00001C0312C34FF12C0B70180E390E03C8774
:101C00000E945A0E3C8532FF17C031FD03C088E7A1
:101C100090E002C088E590E0B7010CC0832F867881
:101C200059F031FF02C08BE201C080E237FD8DE246
:101C3000B70190E00E945A0EA51438F4B70180E372
:101C400090E00E945A0E5A94F7CFAA94F401EA0D3C
:101C5000F11D8081B70190E00E945A0EA110F5CFCE
:101C6000332009F451CEB70180E290E00E945A0E71
:101C70003A94F6CFF7018681978102C08FEF9FEFEC
:101C80002C96E2E10C94160AFC010590615070401C
:101C90000110D8F7809590958E0F9F1F0895FC0135
:101CA0006150704001900110D8F7809590958E0F8B
:101CB0009F1F08950F931F93CF93DF93FB01238101
:101CC00021FD03C08FEF9FEF28C022FF16C0468181
:101CD0005781248135814217530744F4A081B18193
:101CE0009D012F5F3F4F318320838C932681378165
:101CF0002F5F3F4F3783268310C0EB01092F182F2A
:101D00000084F185E02D0995892BE1F68E819F8174
:101D100001969F838E83812F902FDF91CF911F910A
:101D20000F910895FA01AA27283051F1203181F14D
:101D3000E8946F936E7F6E5F7F4F8F4F9F4FAF4FD3
:101D4000B1E03ED0B4E03CD0670F781F891F9A1FE6
:101D5000A11D680F791F8A1F911DA11D6A0F711D9A
:101D6000811D911DA11D20D009F468943F912AE0A6
:101D7000269F11243019305D3193DEF6CF0108958E
:101D8000462F4770405D4193B3E00FD0C9F7F6CFBF
:101D9000462F4F70405D4A3318F0495D31FD405287
:101DA000419302D0A9F7EACFB4E0A695979587951D
:101DB00077956795BA95C9F70097610571050895FC
:101DC0009B01AC010A2E06945795479537952795A8
:101DD000BA95C9F7620F731F841F951FA01D089540
:041DE000F894FFCFA5
:101DE4000000A30280000000400014005400000022
:101DF4000000C5019501800269018D0179016A0124
:101E0400000000004C05A00080027F0225752D25EE
:101E14003032642D253032640025752D253032642E
:101E24002D2530326454253032643A253032643AF8
:101E34002530326400525443206973204E4F54209D
:101E440072756E6E696E672C206C657427732073CF
:101E54006574207468652074696D6521004461743B
:101E64006554696D653A3A54494D455354414D5052
:101E74005F46554C4C3A09004461746554696D657C
:101E84003A3A54494D455354414D505F44415445A9
:101E94003A0900436F756C646E27742066696E643A
:081EA40020525443000D0A0016
:107E0000112484B714BE81FFF0D085E080938100F7
:107E100082E08093C00088E18093C10086E0809377
:107E2000C20080E18093C4008EE0C9D0259A86E02C
:107E300020E33CEF91E0309385002093840096BBD3
:107E4000B09BFECF1D9AA8958150A9F7CC24DD24C4
:107E500088248394B5E0AB2EA1E19A2EF3E0BF2EE7
:107E6000A2D0813461F49FD0082FAFD0023811F036
:107E7000013811F484E001C083E08DD089C08234E0
:107E800011F484E103C0853419F485E0A6D080C0E4
:107E9000853579F488D0E82EFF2485D0082F10E0AE
:107EA000102F00270E291F29000F111F8ED06801E7
:107EB0006FC0863521F484E090D080E0DECF843638
:107EC00009F040C070D06FD0082F6DD080E0C81688
:107ED00080E7D80618F4F601B7BEE895C0E0D1E017
:107EE00062D089930C17E1F7F0E0CF16F0E7DF06D8
:107EF00018F0F601B7BEE89568D007B600FCFDCFD4
:107F0000A601A0E0B1E02C9130E011968C91119780
:107F100090E0982F8827822B932B1296FA010C0160
:107F200087BEE89511244E5F5F4FF1E0A038BF0790
:107F300051F7F601A7BEE89507B600FCFDCF97BE46
:107F4000E89526C08437B1F42ED02DD0F82E2BD052
:107F50003CD0F601EF2C8F010F5F1F4F84911BD097
:107F6000EA94F801C1F70894C11CD11CFA94CF0C13
:107F7000D11C0EC0853739F428D08EE10CD085E9AC
:107F80000AD08FE07ACF813511F488E018D01DD067
:107F900080E101D065CF982F8091C00085FFFCCF94
:107FA0009093C60008958091C00087FFFCCF809118
:107FB000C00084FD01C0A8958091C6000895E0E648
:107FC000F0E098E1908380830895EDDF803219F02E
:107FD00088E0F5DFFFCF84E1DECF1F93182FE3DFCA
:107FE0001150E9F7F2DF1F91089580E0E8DFEE27F6
:047FF000FF270994CA
:027FFE00040479
:0400000300007E007B
:00000001FF
