:100000000C945B000C9483000C9483000C9483008C
:100010000C9483000C9483000C9483000C94830054
:100020000C9483000C9483000C9483000C94830044
:100030000C9483000C9483000C9483000C94830034
:100040000C940A050C9483000C94D8040C94B2040C
:100050000C9483000C9483000C9483000C94830014
:100060000C9454050C948300302E322E3400000082
:100070000000250028002B000404040404040404E8
:100080000202020202020303030303030102040843
:1000900010204080010204081020010204081020F2
:1000A0000000000800020100000304070000000037
:1000B00000000000820611241FBECFEFD8E0DEBF93
:1000C000CDBF11E0A0E0B1E0EAE2F2E102C00590AC
:1000D0000D92A03BB107D9F723E0A0EBB1E001C03E
:1000E0001D92A631B207E1F710E0CBE5D0E004C0E5
:1000F0002197FE010E940809CA35D107C9F70E945D
:1001000008070C9413090C94000090E0FC01E056E1
:10011000FF4F2491FC01E457FF4F3491FC01E85854
:10012000FF4FE491EE23B1F1222339F1233091F016
:1001300038F42130A9F0223001F584B58F7D12C04A
:10014000273091F02830A1F02430B9F4809180005C
:100150008F7D03C0809180008F77809380000DC0D9
:1001600084B58F7784BD09C08091B0008F7703C0BC
:100170008091B0008F7D8093B000F0E0EE0FFF1F04
:10018000E259FF4FA591B4918FB7F894EC913E2BB3
:100190003C938FBF0895CF92DF92EF92FF920F931F
:1001A0001F93CF93DF936C017A018B01C0E0D0E005
:1001B000CE15DF0589F0D8016D918D01D601ED9145
:1001C000FC910190F081E02DC6010995892B11F475
:1001D0007E0102C02196ECCFC701DF91CF911F9124
:1001E0000F91FF90EF90DF90CF900895FC01538D19
:1001F000448D252F30E0842F90E0821B930B541701
:1002000010F0CF96089501970895FC01918D828D8D
:10021000981761F0828DDF01A80FB11D5D968C915A
:10022000928D9F5F9F73928F90E008958FEF9FEF65
:100230000895FC01918D828D981731F0828DE80F21
:10024000F11D858D90E008958FEF9FEF0895FC01DB
:10025000918D228D892F90E0805C9F4F821B9109A8
:100260008F739927089581E592E00E94270121E08C
:10027000892B09F420E0822F0895FC01848DDF0191
:10028000A80FB11DA35ABF4F2C91848D90E0019609
:100290008F739927848FA689B7892C93A089B189F8
:1002A0008C9180648C93938D848D981306C0028802
:1002B000F389E02D80818F7D80830895EF92FF92F6
:1002C0000F931F93CF93DF93EC0181E0888F9B8D79
:1002D0008C8D981305C0E889F989808185FD24C03B
:1002E000F62E0B8D10E00F5F1F4F0F731127E02EBE
:1002F0008C8DE8120CC00FB607FCFACFE889F9899B
:10030000808185FFF5CFCE010E943D01F1CF8B8D1D
:10031000FE01E80FF11DE35AFF4FF0820B8FEA89CF
:10032000FB898081806207C0EE89FF896083E8894C
:10033000F98980818064808381E090E0DF91CF91B2
:100340001F910F91FF90EF900895CF93DF93EC01F1
:10035000888D8823C9F0EA89FB89808185FD05C0E5
:10036000A889B9898C9186FD0FC00FB607FCF5CF1F
:10037000808185FFF2CFA889B9898C9185FFEDCF67
:10038000CE010E943D01E7CFDF91CF91089580E03B
:1003900090E0892B29F00E94330181110C94000018
:1003A00008953FB7F8948091420290914302A09142
:1003B0004402B091450226B5A89B05C02F3F19F015
:1003C0000196A11DB11D3FBFBA2FA92F982F8827D5
:1003D000820F911DA11DB11DBC01CD0142E0660F30
:1003E000771F881F991F4A95D1F708958F929F9282
:1003F000AF92BF92CF92DF92EF92FF926B017C019E
:100400000E94D1014B015C01C114D104E104F1044B
:10041000F1F00E94D101DC01CB0188199909AA09E8
:10042000BB09883E9340A105B10570F321E0C21AD3
:10043000D108E108F10888EE880E83E0981EA11C1F
:10044000B11CC114D104E104F10419F7DDCFFF9010
:10045000EF90DF90CF90BF90AF909F908F900895D6
:100460002FB7F89460913E0270913F028091400254
:10047000909141022FBF0895CF92DF92EF92FF92A9
:100480000F931F93CF93DF93EC018A859B85823076
:100490009105B9F08330910529F0019719F50E9473
:1004A000D10122C00E9430020C851D852E853F851A
:1004B000601B710B820B930B20E63AEE40E050E09C
:1004C0000EC00E9430020C851D852E853F85601B65
:1004D000710B820B930B28EE33E040E050E00E945A
:1004E000E6080EC00E9430020C851D852E853F85D2
:1004F0006B017C01C01AD10AE20AF30AA701960136
:1005000088819981AA81BB81281739074A075B072F
:1005100028F4821B930BA40BB50B03C080E090E082
:10052000DC018C839D83AE83BF83892B8A2B8B2B2D
:1005300021F481E090E099878887DF91CF911F9126
:100540000F91FF90EF90DF90CF90089580910E0370
:1005500090910F03892B21F486E093E00E943C02E6
:1005600060910A0370910B0380910C0390910D032D
:10057000611571058105910531F421E030E030937A
:100580000F0320930E03089585ED8093BC008091A6
:10059000BC0084FDFCCF1092480208954091F40104
:1005A000262F30E0240F311D21323105DCF420915B
:1005B00048022430C9F4FC0180E090E0861758F42A
:1005C0003091F4012191DC01AE52BE4FA30FB11D59
:1005D0002C930196F3CF8091F401680F6093F4019E
:1005E00080E0089581E0089582E00895089581E013
:1005F00090E030914C0220914B02321710F480E0D1
:1006000090E0919581959109089580914C02909187
:100610004B02891730F48F5F80934C0280E090E0AA
:1006200008958FEF9FEF089580914B0290E0209105
:100630004C02821B91090895CF92DF92EF92FF92B4
:100640000F931F93CF93DF937C01262F972F8A015F
:100650008091D101882391F0C62FD72F6E01C40E4F
:10066000D51ECC15DD0571F06991D701ED91FC9196
:100670000190F081E02DC7010995F3CF642F822FFF
:100680000E94CE02C801DF91CF911F910F91FF9080
:10069000EF90DF90CF900895CF93DF931F92CDB767
:1006A000DEB769832091D1012223D1F02091490244
:1006B000203240F021E030E0FC013383228380E0EF
:1006C00090E015C080914A02E82FF0E0EF54FE4F11
:1006D000998190838F5F80934A028093490205C07D
:1006E00061E0CE0101960E94CE0281E090E00F9081
:1006F000DF91CF910895CF93FC01C48121E0209335
:10070000D101C093B00110924A0210924902838530
:10071000682B8EEE92E00E944C0380914902813258
:1007200008F046C0909148029111FCCF92E090935E
:10073000480291E0909347029FEF90931902109224
:100740003B0280933A02A1EBB1E02AE132E0F901E9
:100750009E2F921B981718F49D919193F9CF1092A8
:100760003C0280913C02CC0FC82BC0933C0280918C
:100770004602813061F41092460280913C028093DF
:10078000BB008091BC0083FDF8CF85EC01C085EEF5
:100790008093BC00809148028230E1F3809119027D
:1007A0008F3F31F080911902803211F0809119024F
:1007B00010924A02109249021092D101CF910895ED
:1007C0000F931F93CF938C01C62F0E947B036C2F36
:1007D0006460C8010E947B036C2F6B7FC8010E947C
:1007E0007B0383EC90E00197F1F7CF911F910F917C
:1007F0000895FF920F931F93CF93DF931F92CDB76E
:10080000DEB78C01F62E962F907F692F642BC801DE
:1008100049830E94E00380E1F89EB00111244981E0
:10082000642BC8010F90DF91CF911F910F91FF9022
:100830000C94E003CF93DF93CDB7DEB728970FB6C4
:10084000F894DEBF0FBECDBF98E0E0E0F1E0DE013E
:10085000119601900D929A95E1F7909102039817E5
:1008600010F48FEF890FFE013196E80FF11DE80FAC
:10087000F11D6081606840E08AEF92E028960FB633
:10088000F894DEBF0FBECDBFDF91CF910C94F9037A
:1008900041E00E94F90381E090E00895089580E02E
:1008A00090E008950E940E096115710579F0FB0131
:1008B00001900020E9F73197AF01461B570BDC018F
:1008C000ED91FC910280F381E02D099480E090E0AD
:1008D00008954F925F926F927F92EF92FF920F93E3
:1008E0001F93CF93DF93CDB7DEB7A1970FB6F894E0
:1008F000DEBF0FBECDBF7C01FA01CB0119A22230B1
:1009000008F42AE08E010F5D1F4F422E512C612CFE
:10091000712CBF01A30192010E94E608F901CA01EE
:10092000015011096A3014F4605D01C0695CD8019E
:100930006C93232B242B252B61F7B801C7010E9450
:100940005404A1960FB6F894DEBF0FBECDBFDF9161
:10095000CF911F910F91FF90EF907F906F905F90DC
:100960004F9008951F920F920FB60F9211242F935C
:100970003F934F935F936F937F938F939F93AF9327
:10098000BF93EF93FF9381E592E00E943D01FF91B9
:10099000EF91BF91AF919F918F917F916F915F91F7
:1009A0004F913F912F910F900FBE0F901F90189570
:1009B0001F920F920FB60F9211242F938F939F9334
:1009C000EF93FF93E0916102F09162028081E091E8
:1009D0006702F091680282FD12C0908180916A02E4
:1009E0008F5F8F7320916B02821751F0E0916A0242
:1009F000F0E0EF5AFD4F958F80936A0201C080812D
:100A0000FF91EF919F918F912F910F900FBE0F90BB
:100A10001F9018951F920F920FB60F9211242F93CB
:100A20003F938F939F93AF93BF9380913E0290919A
:100A30003F02A0914002B091410230913D0223E07B
:100A4000230F2D3720F40196A11DB11D05C026E806
:100A5000230F0296A11DB11D20933D0280933E02FB
:100A600090933F02A0934002B093410280914202D2
:100A700090914302A0914402B09145020196A11DBC
:100A8000B11D8093420290934302A0934402B0931D
:100A90004502BF91AF919F918F913F912F910F9000
:100AA0000FBE0F901F9018951F920F920FB60F92C6
:100AB00011242F933F934F935F936F937F938F9363
:100AC0009F93AF93BF93EF93FF938091B900887F7B
:100AD000803609F49CC068F5883209F45BC090F454
:100AE000803109F454C038F4882309F4F6C0883002
:100AF00009F44DC0F6C0883109F44CC0803209F4C5
:100B00005DC0EFC0803409F468C048F4803309F454
:100B100055C0883309F0E5C080931902D8C08035EC
:100B200009F44FC0883509F45DC0883409F0D9C094
:100B3000D6C0883909F4C7C0A8F4883709F467C05B
:100B400038F4883609F463C0803709F460C0C9C03E
:100B5000883809F4B8C0803909F45FC0803809F0DA
:100B6000C0C05BC0803B09F486C038F4803A09F409
:100B700066C0883A09F47FC0B4C0803C09F4A7C0BD
:100B8000883C09F4A4C0883B09F48AC0AAC08091BB
:100B90003C0210C090913B0280913A02981770F588
:100BA000E0913B0281E08E0F80933B02F0E0E65E35
:100BB000FD4F80818093BB0085EC86C08093190235
:100BC0008EC0E0913B0281E08E0F80933B028091CA
:100BD000BB00F0E0E65EFD4F808390913B02809188
:100BE0003A026EC0E0913B0281E08E0F80933B029F
:100BF0008091BB00F0E0E65EFD4F8083809147026C
:100C000081116DC081E08093460284EA61C083E077
:100C10008093480210921802CFCF80911802803240
:100C200008F051C0E091180281E08E0F8093180205
:100C30008091BB00F0E0E850FE4F8083BDCF85EC93
:100C40008093BC001092480280911802803230F4E8
:100C5000E0911802F0E0E850FE4F10826091180217
:100C600070E0E091F601F091F70188EF91E00995CD
:100C70001092180236C084E0809348021092F50169
:100C80001092F401E091F201F091F3010995809145
:100C9000F401811105C081E08093F4011092D2012A
:100CA000E091F50181E08E0F8093F501F0E0EE52C6
:100CB000FE4F80818093BB009091F5018091F401FB
:100CC000981708F479CF85E88093BC000AC085ECBA
:100CD0008093BC001092480204C0109219020E9436
:100CE000C402FF91EF91BF91AF919F918F917F913E
:100CF0006F915F914F913F912F910F900FBE0F9089
:100D00001F901895109254021092530288EE93E0AF
:100D1000A0E0B0E08093550290935602A093570252
:100D2000B09358022CE031E03093520220935102EC
:100D300025EC30E030935E0220935D0224EC30E03D
:100D40003093600220935F0220EC30E03093620227
:100D50002093610221EC30E030936402209363021F
:100D600022EC30E0309366022093650226EC30E0FE
:100D7000309368022093670210926A0210926B020D
:100D800010926C0210926D021092F1021092F00219
:100D90008093F2029093F302A093F402B093F502D1
:100DA0008EE191E09093EF028093EE021092110396
:100DB000109210031092060310920703109208037A
:100DC0001092090380910E0390910F03892B21F457
:100DD00086E093E00E943C0281E090E090930F0354
:100DE00080930E031092FD021092FC0280E391E0CA
:100DF0009093FB028093FA0280E28093FE0284E1EA
:100E00008093030384E08093040310920503089504
:100E1000789484B5826084BD84B5816084BD85B5D5
:100E2000826085BD85B5816085BD80916E008160E1
:100E300080936E0010928100809181008260809387
:100E40008100809181008160809381008091800089
:100E50008160809380008091B10084608093B100B4
:100E60008091B00081608093B00080917A008460AE
:100E700080937A0080917A00826080937A008091DA
:100E80007A00816080937A0080917A0080688093F4
:100E90007A001092C100E0916102F091620282E05A
:100EA0008083E0915D02F0915E021082E0915F022A
:100EB000F091600280E1808310926902E091650206
:100EC000F091660286E08083E0916302F091640213
:100ED000808180618083E0916302F091640280816F
:100EE00088608083E0916302F09164028081806871
:100EF0008083E0916302F091640280818F7D808322
:100F000068E371E081E592E00E94540468E871E0D2
:100F100081E592E00E9454046BE871E081E592E083
:100F20000E945404C8E6D0E0FE016491611135C00E
:100F300068E871E081E592E00E94540410924C024E
:100F400010924B0210924A021092490210924802EB
:100F500081E0809347021092460282E10E94850060
:100F600083E10E9485008091B9008E7F8093B90053
:100F70008091B9008D7F8093B90088E48093B80098
:100F800085E48093BC001092FF02809104038230BC
:100F900098F098E09093FF020FC0E0915102F09119
:100FA00052020190F081E02D81E592E009952196B1
:100FB000892B09F0B9CFBCCF8093020362E370E0C4
:100FC00080E090E00E94F601609105038AEF92E0D4
:100FD0000E947B0368EE73E080E090E00E94F601DF
:100FE00060E38AEF92E00E94E003CBE4D6E4CE0116
:100FF0000197F1F760E38AEF92E00E94E003219706
:10100000F1F760E38AEF92E00E94E00383E592E06B
:101010000197F1F760E28AEF92E00E94E0036091AD
:10102000FF02606240E08AEF92E00E94F90384E0F0
:101030008093000340E06CE08AEF92E00E94F903A5
:1010400040E061E08AEF92E00E94F903CBE3DFE148
:10105000CE010197F1F782E08093010340E066E062
:101060008AEF92E00E94F90340E062E08AEF92E0AA
:101070000E94F903CE010197F1F788E08093050300
:1010800060E08AEF92E00E947B0380E00E941A04F5
:101090002AE043E050E060E070E08AEF92E00E94D6
:1010A000690464EF71E080E090E00E94F60140E0A6
:1010B00061E08AEF92E00E94F9032197F1F780E066
:1010C0000E941A0463EA71E08AEF92E00E945404DD
:1010D00068EC70E080E090E00E94F60182E090E031
:1010E00090931103809310038CEB91E5A1E0B0E0A5
:1010F0008093060390930703A0930803B09309031A
:1011000010920F0310920E030E943002609312039C
:10111000709313038093140390931503C0904D02B2
:10112000D0904E02E0904F02F09050020E94A60232
:10113000C616D706E806F90679F50E94A602672BBF
:10114000682B692B49F1E0915102F0915202019014
:10115000F081E02D69E081E592E009950E94A60208
:10116000AB01BC012AE081E592E00E94690481E0C4
:101170000E941A040E94A602AB01BC012AE08AEF79
:1011800092E00E9469046AEF70E080E090E00E94C3
:10119000F6010E94C701C2CF68E871E081E592E0E4
:1011A0000E94540480E00E941A0461EA71E08AEF10
:1011B00092E00E9454040E94A60260934D02709334
:1011C0004E0280934F0290935002BDCFA1E21A2E9F
:1011D000AA1BBB1BFD010DC0AA1FBB1FEE1FFF1FDB
:1011E000A217B307E407F50720F0A21BB30BE40B2B
:1011F000F50B661F771F881F991F1A9469F7609572
:101200007095809590959B01AC01BD01CF0108952B
:10121000EE0FFF1F0590F491E02D099481E090E01E
:0A122000F8940C941309F894FFCF22
:10122A000000400014005400000000005E01CB00E2
:10123A00F600A501270105011901000000004C0371
:10124A001C034F04F60214030503F7020000000012
:10125A004804CB004F044E04433A5C5573657273DD
:10126A005C555345525C4465736B746F705C656C76
:10127A00656374726F6E5C436F756E74446F776EDC
:10128A002D302E322E345C6578616D706C65735C1E
:10129A0064656D6F5F44484D535C64656D6F5F4470
:1012AA00484D532E696E6F000D0A00434F554E5438
:1012BA00444F574E5F4C49425F56455253494F4E31
:1012CA003A200009090957454C434F4D4521210051
:00000001FF
