:100000000C9472000C949A000C949A000C949A0030
:100010000C949A000C949A000C949A000C949A00F8
:100020000C949A000C949A000C949A000C949A00E8
:100030000C949A000C949A000C949A000C949A00D8
:100040000C94640F0C949A000C949A000C949A00EF
:100050000C949A000C949A000C949A000C949A00B8
:100060000C94AE0F0C949A001F1C1F1E1F1E1F1F06
:100070001E1F1E00000000240027002A00000000B0
:1000800000250028002B0000000000230026002986
:100090000004040404040404040202020202020331
:1000A000030303030301020408102040800102043B
:1000B00008102001020408102000000008000201BE
:1000C0000000030407000000000000000031343A83
:1000D00030383A3332004E6F7620313820323032A9
:1000E0003100CD1011241FBECFEFD8E0DEBFCDBF51
:1000F00024E0A0EEB2E001C01D92A834B207E1F7FF
:1001000012E0A0E0B1E0E6E7FAE302C005900D924C
:10011000A03EB107D9F710E0C2E7D0E004C02197B4
:10012000FE010E94331BC137D107C9F70E946F112E
:100130000C94391D0C94000091E09093A6038093D9
:10014000A5031092A4031092A3030895FC0120912B
:10015000220430E02053384F808190E08053984F44
:1001600028173907C9F4909123048181981314C08A
:1001700090912404828198130FC09091250483816B
:1001800098130AC0909126048481981305C081E0D9
:10019000209127049581291380E0089596E0899F96
:1001A000D0011124AD54BC4F90967C936E935F9711
:1001B00091E091969C939197E0912004F091210415
:1001C00090911F04992339F0309751F0811108C0A4
:1001D0008091CF030994309719F05C968C91FACFF7
:1001E00008959091A2039111FCCF91E09093A20306
:1001F0009093A1032FEF2093A00310929F03260F4B
:1002000020939E0390939D0390919D03880F892BCB
:1002100080939D0380919C038130F9F410929C039C
:1002200080919D038093BB008091BC0083FDF8CF3B
:1002300085EC8093BC008091A2038130E1F3809132
:100240009F03861710F460919F03ACE7B3E0ECE5E1
:10025000F3E080E0861303C0089585EEEACF9D9118
:1002600091938F5FF7CF08950895FC012481358124
:100270006217730720F480819181009729F410920E
:100280004C038CE493E00895860F971F089508951A
:10029000AF92BF92CF92DF92EF92FF920F931F9394
:1002A000CF93DF936C017B018B01040F151FEB01D2
:1002B0005E01AE18BF08C017D10759F06991D60189
:1002C000ED91FC910190F081E02DC6010995892BFB
:1002D00079F7C501DF91CF911F910F91FF90EF90BA
:1002E000DF90CF90BF90AF900895833081F028F4D5
:1002F000813099F08230A9F008958730A9F08830D4
:10030000C9F08430B1F4809180008F7D03C080916A
:1003100080008F7780938000089584B58F7784BDA7
:10032000089584B58F7DFBCF8091B0008F77809347
:10033000B00008958091B0008F7DF9CFCF93DF9307
:10034000282F30E0F901E754FF4F8491F901EB5574
:10035000FF4FD491F901EF56FF4FC491CC23A1F088
:1003600081110E947501EC2FF0E0EE0FFF1FE9579D
:10037000FF4FA591B491EC91ED2381E090E009F459
:1003800080E0DF91CF91089580E090E0FACF862F52
:100390000C949E011F93CF93DF93282F30E0F90137
:1003A000E754FF4F8491F901EB55FF4FD491F901C8
:1003B000EF56FF4FC491CC23A9F0162F81110E9454
:1003C0007501EC2FF0E0EE0FFF1FE358FF4FA591F2
:1003D000B4918FB7F894EC91111108C0D095DE2339
:1003E000DC938FBFDF91CF911F910895DE2BF8CF63
:1003F00010925B0310925A031092A4031092A3036D
:100400001092A20381E08093A10310929C0361E00B
:1004100082E10E94CA0161E083E10E94CA01E9EB26
:10042000F0E080818E7F808380818D7F808388E46F
:100430008093B80085E48093BC0083E391E09093BF
:1004400059038093580384E391E09093570380937A
:1004500056030895862F642F0C94CA01CF93DF931F
:1004600090E0FC01EB55FF4F24918F569F4FFC010C
:1004700084918823C9F090E0880F991FFC01ED5802
:10048000FF4FA591B491FC01E358FF4FC591D49162
:1004900061110DC09FB7F8948C91209582238C93A5
:1004A0008881282328839FBFDF91CF9108956230F0
:1004B00051F49FB7F8943C91822F809583238C93BD
:1004C000E8812E2BEFCF8FB7F894EC912E2B2C9345
:1004D0008FBFEACF862F642F0C942E023FB7F8947B
:1004E0008091480390914903A0914A03B0914B0336
:1004F00026B5A89B05C02F3F19F00196A11DB11D7F
:100500003FBFBA2FA92F982F8827BC01CD01620FBA
:10051000711D811D911D42E0660F771F881F991F75
:100520004A95D1F708958F929F92AF92BF92CF9242
:10053000DF92EF92FF924B015C010E946E026B0111
:100540007C010E946E026C197D098E099F09683E2C
:10055000734081059105A8F321E0821A9108A10852
:10056000B10888EEC80E83E0D81EE11CF11C81148E
:100570009104A104B10429F7FF90EF90DF90CF9090
:10058000BF90AF909F908F9008952FB7F89460918F
:1005900044037091450380914603909147032FBF18
:1005A00008950F931F93CF93DF93C82FD62F86E024
:1005B000C89FF0011124ED54FC4F11A2878D90A12A
:1005C00081309105F1F058F082309105F1F10397F7
:1005D00009F440C0DF91CF911F910F9108956623D8
:1005E000C9F361E070E08C2F0E94CE000E94C5022A
:1005F00060930B0470930C0480930D0490930E048D
:10060000E9CF0E94C50200910B0410910C042091C7
:100610000D0430910E04AB01BC01401B510B620B69
:10062000730B80911D0490911E04B0E0A0E084172C
:100630009507A607B70748F462E070E08C2FDF91BA
:10064000CF911F910F910C94CE0063E070E0D11117
:10065000C1CFF4CF70E060E0F1CFCF92DF92EF92A4
:10066000FF920F931F93CF93DF93EC018A859B85B5
:100670008230910509F447C08330910591F00197CC
:1006800009F050C00E946E020C851D852E853F85A5
:100690006B017C01C01AD10AE20AF30AA701960194
:1006A00010C00E94C5020C851D852E853F85601BEC
:1006B000710B820B930B20E63AEE40E050E00E9473
:1006C000F21A88819981AA81BB81281739074A07C4
:1006D0005B0758F5821B930BA40BB50B8C839D8392
:1006E000AE83BF83892B8A2B8B2B21F481E090E092
:1006F00099878887DF91CF911F910F91FF90EF909D
:10070000DF90CF9008950E94C5020C851D852E852F
:100710003F85601B710B820B930B28EE33E040E0AA
:1007200050E0CDCF0E94C502AFCF80E090E0DC0169
:10073000D5CFCF93DF93EC0188859985892B19F468
:10074000CE010E942D036C817D818E819F81611578
:1007500071058105910521F421E030E03987288772
:10076000DF91CF91089585ED8093BC008091BC000E
:1007700084FDFCCF1092A203089520912003260F40
:100780003327331F21323105ECF42091A203FC0101
:1007900090E080E0243069F082E00895A091200389
:1007A0002191AC0140505D4FA40FB52FB11D2C938A
:1007B0000196861798F380912003680F60932003B9
:1007C00080E0089581E008950895E0915B038091B1
:1007D0005A03E81730F4F0E0E45AFC4F808190E0CF
:1007E00008958FEF9FEF089590915B0380915A03D6
:1007F0002FEF3FEF981748F4E92FF0E0E45AFC4F51
:10080000208130E09F5F90935B03C9010895809140
:100810005A0390915B03891B990B0895CF92DF9245
:10082000EF92FF920F931F93CF93DF937C01CB0145
:100830008A012091A603222389F0EB016B01C40EEB
:10084000D51ECC15DD0569F06991D701ED91FC91BC
:100850000190F081E02DC7010995F3CF642F0E942C
:10086000BD03C801DF91CF911F910F91FF90EF90D1
:10087000DF90CF900895CF93DF931F92CDB7DEB76F
:1008800069832091A6032223F9F02091A30320324B
:1008900058F021E030E0FC013383228390E080E0D7
:1008A0000F90DF91CF9108958091A403E82FF0E09D
:1008B000E052FD4F998190838F5F8093A4038093D2
:1008C000A30381E090E0ECCF61E0CE0101960E94AD
:1008D000BD03F7CF2091A30381E0213208F044C08B
:1008E0008091A2038111FCCF8091A50392E09093A7
:1008F000A20391E09093A1039FEF9093A003109225
:100900009F0320939E03A0EEB2E0ECE7F3E090E0BB
:10091000291331C010929D0390919D03880F892B5C
:1009200080939D0380919C03813049F510929C0334
:1009300080919D038093BB008091BC0083FDF8CF24
:1009400085EC8093BC008091A2038230E1F380911A
:10095000A0038F3FB1F08091A0038032A1F080917D
:10096000A003803391F084E01092A4031092A303BB
:100970001092A60308953D9131939F5FC9CF85EEF4
:10098000E0CF80E0F1CF82E0EFCF83E0EDCF0F93B7
:100990001F93CF938C01C62FFC0184810E949C0081
:1009A000F80163856C2B87EA93E00E943B0487EA99
:1009B00093E0CF911F910F910C946A0490E080E036
:1009C0000895EF92FF920F931F93CF93DF93EC0163
:1009D00069813881432F50E02A81822F90E0E8E638
:1009E000F0E021E0261730F47491870F911D2F5FFE
:1009F0003196F8CF633018F0337009F401966DE644
:100A000071E0469F9001479F300D569F300D112495
:100A1000215031094D5F5F4F569547955695479543
:100A2000240F351F280F391FA8E1B0E00E942F1AAC
:100A30002B817B018C01E20EF11C011D111DA8010F
:100A40009701ACE3B0E00E94ED192C817B018C0191
:100A5000E20EF11C011D111DA80197010E94ED1964
:100A6000AB01BC019D81892F90E0B0E0A0E08058EF
:100A70009C4BA249B74C8A019B01080F191F2A1FE2
:100A80003B1FC901B801DF91CF911F910F91FF90DA
:100A9000EF900895FC01908190539A3008F090E017
:100AA000818180532AE0929F800D112408958F92B6
:100AB0009F92AF92BF92CF92DF92EF92FF92CF932D
:100AC000DF93EC016A017B0180E8C81A83E4D80A4D
:100AD0008DE6E80A88E3F80A8CE3882E912CA12C95
:100AE000B12CC701B601A50194010E94F21A6D83D1
:100AF000CA01B901A50194010E94F21A6C83C701D1
:100B0000B60120E13EE040E050E00E94F21ACA0146
:100B1000B90128E130E040E050E00E94F21A6B8316
:100B2000C701B60120E831E541E050E00E94F21A29
:100B3000188263E97EEF8881982F937041E050E03E
:100B400011F050E040E0FA01E359FE4F2E173F0745
:100B500040F0FB01E41BF50B2E0F3F1F8F5F8883D6
:100B6000EACF81E0898389818C30A0F4482F4150FD
:100B7000550BFA01E859FF4FE491911103C08230FF
:100B800009F4EF5FF0E02E173F0720F02E1B3F0B1C
:100B90008F5FE8CF2F5F2A83DF91CF91FF90EF9097
:100BA000DF90CF90BF90AF909F908F9008958F92DD
:100BB0009F92AF92BF920F931F93CF93DF93CDB7C6
:100BC000DEB7A1970FB6F894DEBF0FBECDBF19A256
:100BD000423008F44AE08E010F5D1F4F842E912CA5
:100BE000B12CA12CA50194010E94F21AE62FB901A3
:100BF000CA01EA3044F5E05DD801EE938D01232B64
:100C0000242B252B79F790E080E0109769F0FD0107
:100C100001900020E9F73197AF014A1B5B0BBD0142
:100C200088E394E00E944801A1960FB6F894DEBFD5
:100C30000FBECDBFDF91CF911F910F91BF90AF90AD
:100C40009F908F900895E95CD7CFFC010190002020
:100C5000E9F73197AF01481B590BBC0188E394E0D9
:100C60000C94480188E60E94F10010925B03809387
:100C70005A030895DF92EF92FF920F931F93CF9341
:100C8000DF937C0188E60E949C0080915403909140
:100C90005503DC01ED91FC910190F081E02D63E0C2
:100CA000099580915403909155030E946A0467E06E
:100CB00070E080915403909155030E943206809118
:100CC000540390915503DC01ED91FC910284F3856E
:100CD000E02D09958F77282F30E094E03595279502
:100CE0009A95E1F7922F990F990FC22FC91BCC0F3C
:100CF000C80F8091540390915503DC01ED91FC9154
:100D00000284F385E02D09959C0144E035952795F3
:100D10004A95E1F72F703327922F990F990FD22F11
:100D2000D91BDD0FD80F8091540390915503DC013E
:100D3000ED91FC910284F385E02D09959C0154E02E
:100D4000359527955A95E1F72F703327922F990FF4
:100D5000990F122F191B110F180F809154039091A6
:100D60005503DC01ED91FC910284F385E02D09959A
:100D70009C0164E0359527956A95E1F72F7033273C
:100D8000922F990F990F022F091B000F080F8091C6
:100D9000540390915503DC01ED91FC910284F3859D
:100DA000E02D09958091540390915503DC01ED915C
:100DB000FC910284F385E02D09959C0174E0359542
:100DC00027957A95E1F72F703327922F990F990F76
:100DD000D22ED91ADD0CD80E809154039091550370
:100DE000DC01ED91FC910284F385E02D09959C01D5
:100DF000E4E035952795EA95E1F72F703327922F98
:100E0000990F990F291B220F820FF7018083D1823E
:100E100002831383D483C583C701DF91CF911F91D0
:100E20000F91FF90EF90DF9008951F93CF93DF9382
:100E3000182FEB0188E60E949C00E881F98101905F
:100E4000F081E02D612FCE010995CE010E946A0448
:100E500061E088E60E94F10010925B0380935A03E0
:100E6000E881F9810284F385E02DCE010995DF91B7
:100E7000CF911F9108950F931F93CF938C01C62F8D
:100E80000E94C7046C2F6460C8010E94C7046C2FC5
:100E90006B7FC8010E94C70483EC90E00197F1F7D3
:100EA000CF911F910F9108950F931F93CF93DF93CD
:100EB0008C01D62FC42F607F642B0E943B0780E1FA
:100EC000D89FB00111246C2BC801DF91CF911F91E5
:100ED0000F910C943B07CF93DF93CDB7DEB72897E4
:100EE0000FB6F894DEBF0FBECDBF98E0E5E2F1E0AB
:100EF000DE01119601900D929A95E1F790914004D0
:100F0000961710F46FEF690F262F30E0220F331F72
:100F100041E050E04C0F5D1F240F351FF901608147
:100F2000680F606840E088E394E028960FB6F89474
:100F3000DEBF0FBECDBFDF91CF910C945407CF938E
:100F4000DF93D82FC3E16D2F8C2F0E946B078FE8A2
:100F500091E00E942506C150B0F7DF91CF9108952E
:100F600041E00E94540781E090E00895CF92DF9223
:100F7000EF92FF926C01990FEE08FF08F7FE16C082
:100F800041E06DE288E394E00E94540766277727EA
:100F9000CB016C197D098E099F094AE00E94D70593
:100FA0000196FF90EF90DF90CF9008954AE0C7013F
:100FB000B601FF90EF90DF90CF900C94D705CF93C0
:100FC000DF9380E480937C0080917A00806480933A
:100FD0007A0080917A0086FDFCCFD0917800C09194
:100FE000790063E080E00E946B0787E591E00E9452
:100FF00025067C2F6D2F072E000C880B990B0E9465
:10100000DE182CE030E340E45CE30E94191920E094
:1010100030E040E451E40E943E1A20E030E048EC29
:1010200052E40E9419190E94B01ACB010E94B6071F
:101030008EE591E0DF91CF910C94250640E061E0D0
:1010400088E394E00E9454078BE39FE10197F1F756
:101050000895FC0124813581FB01448155812417C9
:101060003507E1F4FC0180819181FB016081718190
:101070000097D1F061157105A1F4232BC1F0FC019B
:10108000808190E008C0232B91F0FB01808190E0EB
:1010900091958195910921E0892B09F020E0822F1B
:1010A00008950E94291DF7CF6115710561F721E0B0
:1010B000F6CFFC0180819181009711F00C946D189E
:1010C00060E070E0CB0108950F931F93CF93DF93FF
:1010D0008C01EB01FC01808191810097E1F0688136
:1010E000798161157105A9F0428153812C813D817F
:1010F0004217530770F00E94321D8C819D81F801C8
:10110000958384831D821C82DF91CF911F910F9163
:1011100008950E94D51B88819981F801918380836D
:101120008A819B81938382838C819D819583848333
:10113000198218821B821A82E5CFCF93DF93EC01CC
:1011400088819981009711F00E94D51B198218821D
:101150001D821C821B821A82DF91CF910895FC01AF
:1011600080819181009711F00C94D51B08950F9305
:101170001F93CF93DF93EC0188819981009759F0F9
:101180002A813B812617370730F081E0DF91CF912C
:101190001F910F9108958B016F5F7F4F0E945E1C1E
:1011A000009759F0998388831B830A832C813D81A2
:1011B000232B59F7FC011082E8CF80E0E7CFEF92B4
:1011C000FF920F931F93CF93DF936115710541F445
:1011D00080E0DF91CF911F910F91FF90EF900895E4
:1011E00041155105B1F07B01EC010C811D81040F0B
:1011F000151FB8010E94B708882351F3288139814F
:101200008C819D81B701820F931F0E94321D1D8327
:101210000C8381E0DECFCF93DF93EC01FB014481AF
:101220005581608171810E94DF08811103C0CE0168
:101230000E949D08CE01DF91CF910895EF92FF9219
:101240000F931F93CF93DF93EC017B018A01BA01C7
:101250000E94B70881110BC0CE010E949D08CE01EB
:10126000DF91CF911F910F91FF90EF9008951D8313
:101270000C83B701888199810E94321DF0CFFB0158
:1012800001900020E9F73197AF01461B570B0C94F2
:101290001E090F931F93CF93DF93CDB7DEB7299726
:1012A0000FB6F894DEBF0FBECDBF8C01862FF801BC
:1012B0001182108213821282158214824AE0BE01CA
:1012C0006F5F7F4F90E00E94B218BE016F5F7F4F4B
:1012D000C8010E943F0929960FB6F894DEBF0FBEE1
:1012E000CDBFDF91CF911F910F910895CF93DF93E1
:1012F00000D0CDB7DEB7FC011182108213821282BA
:101300001582148269831A82BE016F5F7F4F0E942B
:101310003F090F900F90DF91CF910895CF93DF9306
:10132000EC01FB018617970749F060817181611517
:10133000710541F0448155810E941E09CE01DF9163
:10134000CF9108950E949D08F9CFFC01118210826F
:1013500013821282158214820C948E09FC01118270
:1013600010821382128215821482FB0101900020E8
:10137000E9F73197AF01461B570B0C941E090F93E9
:101380001F93CF93DF938C01D0E0C0E0F80161910F
:101390008F0180914D0390914E038C0F9D1F0E94F1
:1013A000DF192196C330D10589F780914D039091C3
:1013B0004E03039690934E0380934D03DF91CF919C
:1013C0001F910F9108951F93CF93DF93EC01162F78
:1013D0000E94D719181739F0612FCE01DF91CF91F4
:1013E0001F910C94DF19DF91CF911F9108957F9287
:1013F0008F929F92AF92BF92CF92DF92EF92FF9225
:101400000F931F93CF93DF93CDB7DEB767970FB6D8
:10141000F894DEBF0FBECDBF8C01FC01808190E04F
:101420001B8A1A8A1D8A1C8A1F8A1E8A4AE0BE01EC
:101430006F5F7F4F8053984F0E94B218BE016F5F5D
:101440007F4FCE0142960E943F0970E060E0CE01DE
:1014500042960E943501FC016081CE0101960E94F6
:101460007609CE0101960E945908F62ECE0101960A
:101470000E94AF0861E070E0CE0142960E94350103
:10148000FC016081CE0101960E947609CE01019691
:101490000E945908E62ECE0101960E94AF0862E034
:1014A00070E0CE0142960E943501FC016081CE01C0
:1014B00001960E947609CE0101960E945908D62E07
:1014C000CE0101960E94AF0863E070E0CE01429623
:1014D0000E943501FC016081CE0101960E947609CF
:1014E000CE0101960E945908C62ECE0101960E9497
:1014F000AF08F801B180A28093808480758010E0ED
:1015000000E06F2D90E080E00115110531F0013011
:10151000110561F46E2D81E090E00E94E3096A2DCF
:1015200085E090E00530110559F108C00230110541
:1015300061F46D2D82E090E00E94E309692D86E060
:1015400090E006301105E1F008C00330110591F478
:101550006C2D83E090E00E94E309682D87E090E025
:101560000730110569F00830110561F4672D88E036
:1015700090E006C06B2D84E090E00430110579F610
:101580000E94E3090F5F1F4F0930110509F0B9CF21
:10159000CE0142960E94AF0867960FB6F894DEBF60
:1015A0000FBECDBFDF91CF911F910F91FF90EF90B4
:1015B000DF90CF90BF90AF909F908F907F900895D5
:1015C0000C94D719CF92DF92EF92FF920F931F9353
:1015D000CF93DF93CDB7DEB728970FB6F894DEBF71
:1015E0000FBECDBF8C017B0160E971E0CE01019699
:1015F0000E94AE09670183E0C80ED11CCE14DF043F
:1016000009F448C080914D0390914E03E816F90605
:101610007CF109976CF563E080E00E946B0782E63D
:1016200091E00E94250664EF71E080E090E00E9466
:10163000930283E090E00E949F070E94DF0760E929
:1016400071E0C8010E94AE09CE0101960E94AF0868
:10165000C80128960FB6F894DEBF0FBECDBFDF914C
:10166000CF911F910F91FF90EF90DF90CF90089551
:10167000C7010E94E00A8F83188641E050E0BE0156
:10168000695F7F4FCE0101960E94DF08EFEFEE1AEF
:10169000FE0AB4CFF80111821082138212821582E1
:1016A0001482BE016F5F7F4FC8010E946408CCCFD7
:1016B0009F92AF92BF92CF92DF92EF92FF920F93E1
:1016C0001F93CF93DF93CDB7DEB7EC970FB6F894A7
:1016D000DEBF0FBECDBF7C0160E971E0CE014F9649
:1016E0000E94AE0960E971E0CE0185960E94AE09C4
:1016F00060E971E0CE018B960E94AE0960E971E06D
:10170000CE01C1960E94AE0960E971E0CE01C79694
:101710000E94AE0910E000E001151105E9F490E027
:1017200080E00E94E00A682FCE0101960E944909DC
:10173000BE016F5F7F4FCE0185960E946408CE0187
:1017400001960E94AF080530110579F585E090E01B
:101750000E94E00AA82E5CC00130110579F481E0F6
:1017600090E00E94E00A682FCE0101960E9449098C
:10177000BE016F5F7F4FCE018B96DFCF0230110528
:10178000E9F482E090E00E94E00A682FCE01019621
:101790000E944909BE016F5F7F4FCE01C1960E9432
:1017A0006408CE0101960E94AF0806301105E9F4E5
:1017B00086E090E00E94E00AB82E2AC003301105AE
:1017C000F1F483E090E00E94E00A682FCE010196D8
:1017D0000E944909BE016F5F7F4FCE01C7960E94EC
:1017E0006408CE0101960E94AF080730110509F088
:1017F0009AC087E090E00E94E00AC82E09C0043039
:10180000110509F0A0CF84E090E00E94E00A982E34
:101810000F5F1F4F0930110509F07ECFBE01695CD3
:101820007F4FCE0149960E94A509BE016F5C7F4F94
:10183000CE0143960E94A509BE01655D7F4FCE0192
:101840000D960E94A509BE016B5D7F4FCE010196EA
:101850000E94A509BE016F5F7F4FCE0107960E94CF
:10186000A509BE01635F7F4FCE0107960E940B0959
:10187000BE016D5E7F4F0E940B09BE01675E7F4F08
:101880000E940B09BC01CE014F960E948E09CE0129
:1018900007960E94AF08CE0101960E94AF08CE01C4
:1018A0000D960E94AF08CE0143960E94AF08CE016C
:1018B00049960E94AF08CE014F960E9459089B019D
:1018C000603D774010F0205D3740F7012083918222
:1018D000A282B382C482D582CE01C7960E94AF088D
:1018E000CE01C1960E94AF08CE018B960E94AF0830
:1018F000CE0185960E94AF08CE014F960E94AF0898
:10190000C701EC960FB6F894DEBF0FBECDBFDF91D6
:10191000CF911F910F91FF90EF90DF90CF90BF90EC
:10192000AF909F9008950830110509F071CF88E0BD
:1019300090E00E94E00AD82E6BCFCF93DF9300D0C7
:1019400000D000D0CDB7DEB780912204898380918A
:1019500023048A83809124048B83809125048C83C3
:10196000809126048D83809127048E83CE01019679
:101970000E94F709CE0101960E94580BCE010196F4
:101980000E94A60063E08823F1F083E10E946B07C8
:101990008EEB91E00E9425066EE571E080E090E01C
:1019A0000E94930263E083E10E946B078FE891E05D
:1019B0000E94250626960FB6F894DEBF0FBECDBF57
:1019C000DF91CF91089583E10E946B0786E791E054
:1019D000E1CFCF93DF9300D000D000D0CDB7DEB7FA
:1019E000CE0101960E94580BCE0101960E94A600DE
:1019F000811113C089818A30D1F48A818130B9F490
:101A00008B818130A1F48C818C3089F48D8181119E
:101A10000EC081E09E81911101C080E026960FB634
:101A2000F894DEBF0FBECDBFDF91CF91089581E066
:101A3000F5CF4F925F926F927F928F929F92AF926B
:101A4000BF92CF92DF92EF92FF920F931F93CF93AB
:101A5000DF93CDB7DEB7E2970FB6F894DEBF0FBEC7
:101A6000CDBFAB8ABC8ACD8ADE8AEF8AF88E098F19
:101A70001A8F2B8F3C8F4D8F5E8F6F8F78A389A32A
:101A80009AA390E080E00E949F0781E090E00E948E
:101A90009F0782E090E00E949F0740E853E46DE6D4
:101AA00078E3CE0107960E94570540E853E46DE6BF
:101AB00078E3CE010D960E9457050E94E90C882319
:101AC00009F440C1CE0101960E94580B86E0FE0148
:101AD0003196DE011D9601900D928A95E1F7CE01B7
:101AE00001960E943A0686E0FE013196DE011796C5
:101AF00001900D928A95E1F72D8530E02053384F03
:101B00008F8190E08053984F2817390708F4C5C19A
:101B10002817390709F59E858885981708F4BDC1EF
:101B200098131AC09F858985981708F4B6C1981331
:101B300013C098898A85981708F4AFC198130CC010
:101B400099898B85981708F4A8C1981305C09A89BC
:101B50008C85981708F4A1C1CE010D960E94E1046E
:101B60004B015C01CE0107960E94E104861A970A98
:101B7000A80AB90A60E080E00E946B0788E791E05C
:101B80000E942506C501B40120E831E541E050E09E
:101B90000E94141BA22FB0E020E831E541E050E0A4
:101BA0000E94ED196B017C013CE3432E512C612C0A
:101BB000712CC501B401A30192010E94141B6FA3F3
:101BC00078A789A79AA7CA01B901A30192010E9427
:101BD000141B9B01AC01ACE3B0E00E94ED19C60EF2
:101BE000D71EE81EF91E8FA198A5A9A5BAA5C80EF3
:101BF000D91EEA1EFB1EC501B40120E13EE040E013
:101C000050E00E94141BCA01B90128E130E040E015
:101C100050E00E94141B9B01AC0144275527A0E112
:101C2000BEE00E94ED1922E030E03E8F2D8FC60EFF
:101C3000D71EE81EF91E98E3C91699E8D90691E463
:101C4000E906F10438F027E3C22E29E8D22E21E478
:101C5000E22EF12CCB8ADC8AED8AFE8A1C8E1B8E4A
:101C60000E94C5026F8F78A389A39AA3CE014396E1
:101C70000E949903672B682B692B21F061E08CE0AF
:101C80000E94CA0180E1882E8EE0982EA12CB12CF2
:101C90009CE3492E512C612C712CCE0143960E945D
:101CA0009903672B682B692B09F4D7C0CE014396A3
:101CB0000E9499036B017C018BA19CA1ADA1BEA1E7
:101CC000C816D906EA06FB0609F470C0CE01439691
:101CD0000E9499036B017C0120E831E541E050E06E
:101CE0000E94F21A2BA33CA34DA35EA3A50194016D
:101CF0000E94F21A2FA338A749A75AA7C701B60115
:101D0000A50194010E94F21AA30192010E94F21A05
:101D10002BA73CA74DA75EA7C701B601A30192015F
:101D20000E94F21A6FA778AB89AB9AABABA1BCA1AA
:101D30001A9708F449C061E080E00E946B078EE8C2
:101D400091E048C0CE0101960E943A0686E0FE016D
:101D50003196DE01179601900D928A95E1F7CE013A
:101D600007960E94E104AB01BC015357684D7F4FB9
:101D7000CE0101960E94570586E0FE013196DE01F4
:101D80001D9601900D928A95E1F78D8589838E8548
:101D90008A838F858B8388898C8389898D838A89BF
:101DA0008E83CE0101960E94F709D6CECE014396CE
:101DB0000E949903672B682B692B09F487CFCBA26C
:101DC000DCA2EDA2FEA269CF61E080E00E946B0779
:101DD00087E891E00E9425068BA19CA10E94B6078E
:101DE0008BE891E00E9425068FA198A50A9720F420
:101DF00089E891E00E9425068FA198A50E94B60768
:101E000081E991E00E942506ABA5BCA51A9720F4B4
:101E100089E891E00E9425068BA59CA50E94B60743
:101E200084E991E00E9425068FA598A90A9720F4DD
:101E300089E891E00E9425068FA598A90E94B6071F
:101E400087E991E00E9425060E94DF0764E670E0C2
:101E500080E090E00E949302B2CF0E949D0C90E03F
:101E600080E00E949F0782E090E00E949F0781E04F
:101E700090E00E949F0760E080E00E946B078CE981
:101E800091E00E94250660E08CE00E94CA0168EEA5
:101E900073E080E090E00E949302E2960FB6F8941F
:101EA000DEBF0FBECDBFDF91CF911F910F91FF908D
:101EB000EF90DF90CF90BF90AF909F908F907F90EA
:101EC0006F905F904F9008951F920F920FB60F92F0
:101ED00011242F933F938F939F93AF93BF93809140
:101EE000440390914503A0914603B091470330917C
:101EF000430323E0230F2D3758F50196A11DB11D93
:101F0000209343038093440390934503A093460397
:101F1000B09347038091480390914903A0914A03ED
:101F2000B0914B030196A11DB11D8093480390937E
:101F30004903A0934A03B0934B03BF91AF919F9184
:101F40008F913F912F910F900FBE0F901F9018957A
:101F500026E8230F0296A11DB11DD2CF1F920F922A
:101F60000FB60F9211242F933F934F935F936F936C
:101F70007F938F939F93AF93BF93EF93FF93809142
:101F8000B900887F803609F44AC0F0F5883209F438
:101F9000A7C018F5803109F49BC0B8F4882309F470
:101FA000F9C0883009F494C0FF91EF91BF91AF91CF
:101FB0009F918F917F916F915F914F913F912F9161
:101FC0000F900FBE0F901F901895883109F488C0AC
:101FD000803251F78093A00314C0803409F49DC06F
:101FE00040F48033B9F38833F9F68093A00385EC8D
:101FF000B0C0803509F485C0883509F496C08834AE
:1020000099F60E94B303D0CF883909F48CC038F513
:10201000883729F050F4883611F0803729F683E0AC
:102020008093A2031092420357C0883809F47BC002
:10203000803919F0803809F0B7CF8091420380329F
:1020400008F071C0E091420381E08E0F809342035B
:102050008091BB00F0E0EE5DFC4F80833DC0803B93
:1020600039F0E0F4803A09F479C0883A09F09CCF5D
:1020700084E08093A2031092210310922003E09148
:102080005803F091590309958091200381110FC0E5
:1020900081E0809320031092000309C0803C09F482
:1020A000A6CF883C09F4A3CF883B09F07DCFE0910F
:1020B000210381E08E0F80932103F0E0E050FD4F7B
:1020C00080818093BB00909121038091200329C0DF
:1020D00080919D038093BB0085EC8093BC0064CF0E
:1020E00090919F0380919E03981758F5E0919F036C
:1020F00081E08E0F80939F03F0E0E458FC4F8081D5
:10210000E9CFE0919F0381E08E0F80939F03809140
:10211000BB00F0E0E458FC4F808390919F038091D6
:102120009E039817C8F285E8D8CFE0919F0381E01D
:102130008E0F80939F038091BB00F0E0E458FC4F2A
:1021400080838091A10381115CCF81E080939C0307
:1021500084EA8093BC001092A20326CF85EC809382
:10216000BC001092A20380914203803230F4E091CF
:102170004203F0E0EE5DFC4F10826091420370E09C
:10218000E0915603F091570382E293E00995109293
:1021900042030ACF1092A00334CF1092AA031092E8
:1021A000A90388EE93E0A0E0B0E08093AB039093A6
:1021B000AC03A093AD03B093AE0383E391E090939F
:1021C000A8038093A70310923B0410923A048FE473
:1021D00091E0909339048093380480E280933C042A
:1021E00084E18093410484E080934204109243048C
:1021F0001092330410923204109228041092290491
:1022000010922A0410922B04809130049091310492
:10221000892B21F488E294E00E942D0381E090E074
:1022200090933104809330048AE08093220481E00B
:1022300080932304809324048CE0809325041092DF
:102240002604109227041092B5031092B90310923D
:10225000B8031092BA0385E491E09093B40380939D
:10226000B303EFECF3E010821482138215823696EA
:1022700084E0EB30F807B9F78FE091E09093160413
:10228000809315048CE091E09093180480931704D8
:1022900084E08093190483E080931A0483E191E041
:1022A00090931404809313048AE090E090931C04AC
:1022B00080931B0484EF91E090931E0480931D048F
:1022C000109221041092200410920F041092100416
:1022D000109211041092120410921F040895CF93CB
:1022E000DF93CDB7DEB7A3970FB6F894DEBF0FBE6E
:1022F000CDBF789484B5826084BD84B5816084BD8F
:1023000085B5826085BD85B5816085BD80916E0093
:10231000816080936E0010928100809181008260C4
:102320008093810080918100816080938100809101
:1023300080008160809380008091B10084608093F0
:10234000B1008091B00081608093B00080917A00EC
:10235000846080937A0080917A00826080937A0012
:1023600080917A00816080937A0080917A00806801
:1023700080937A001092C10082E190E090934E0326
:1023800080934D030E94F80110923D048091420415
:10239000823018F098E090933D048093400462E30B
:1023A00070E080E090E00E9493026091430488E333
:1023B00094E00E94C70468EE73E080E090E00E9421
:1023C000930260E388E394E00E943B077BE4E72EFE
:1023D00076E4F72EC7010197F1F760E388E394E014
:1023E0000E943B07C7010197F1F760E388E394E09F
:1023F0000E943B0783E592E00197F1F760E288E3F2
:1024000094E00E943B0760913D04606240E088E3F5
:1024100094E00E94540784E080933E0440E06CE026
:1024200088E394E00E9454070E941E0882E0809393
:102430003F0440E066E088E394E00E94540740E0F7
:1024400062E088E394E00E9454078BE39FE10197E8
:10245000F1F788E08093430460E088E394E00E9411
:10246000C70460E080E00E946B078DEA91E00E9463
:10247000250668EE73E080E090E00E94930261E040
:102480008CE00E942E0280E380934F0380935003E0
:102490008093510387EA93E090935503809354030C
:1024A0000E94F80188E60E949C008091540390915C
:1024B00055030E946A04811178C088E60E949C003E
:1024C0008091540390915503DC01ED91FC910190B2
:1024D000F081E02D62E009958091540390915503BD
:1024E0000E946A0461E070E080915403909155036A
:1024F0000E9432068091540390915503DC01ED91C6
:10250000FC910284F385E02D0995807E9927803E19
:10251000910509F05EC062E080E00E946B0780ECEC
:1025200091E00E94250663E080E00E946B0784ED45
:1025300091E00E94250664EF71E080E090E00E9447
:10254000930282E090E00E949F0783E090E00E9467
:102550009F074BE050E066ED70E0CE0101960E94CF
:102560009418CE010A960E944A05082FE981E15489
:10257000E33108F0A9C00E2E000CFF0BEE53FD4E08
:102580000C94331B431464136413571464135914C9
:102590006413641364135B13641364134A145514B3
:1025A0005314641364136413511462E080E00E94B6
:1025B0006B0785EE91E00E94250664EF71E080E0F4
:1025C00090E00E94930282E090E00E949F070E94A8
:1025D0001B1D609154037091550383E00E94150701
:1025E00090E0880F892F881F990B892B09F093CFD2
:1025F000609154037091550380E00E941507F82EF6
:1026000085FF1DC0009154031091550388E60E9478
:102610009C00D801ED91FC910190F081E02D60E0EB
:10262000C80109956F2D6F7DD801ED91FC91019046
:10263000F081E02DC8010995C8010E946A0469E093
:1026400070E0CE0101960E94E20A8D819E81892B65
:1026500009F031C180910801882309F43DC18091BE
:102660004F03882309F438C189E090E090934E032A
:1026700080934D030E949D0C88E091E00E94BF0969
:1026800084E091E00E94BF0980E091E00E94BF09D0
:1026900062E080E00E946B0788EF91E00E942506CF
:1026A00064EF71E080E090E00E94930282E090E0AD
:1026B0000E949F0711C18A8111E0813629F08B8128
:1026C00016E08E3609F017E0CE0105960E944A0505
:1026D000E82E48E050E06DEC70E0CE0101960E94DB
:1026E0009418CE0101960E944A05D82ECE01049678
:1026F0000E944A05C82ECE0107960E944A05B82EB0
:1027000088E60E949C008091540390915503DC015F
:10271000ED91FC910190F081E02D63E00995A0918D
:102720005403B09155035AE0F52E8B2D6F2D0E9466
:10273000E61A682F660F680F660F6B0DED91FC911E
:1027400011970190F081E02DCD010995A0915403DE
:10275000B09155038C2D6F2D0E94E61A682F660FDD
:10276000680F660F6C0DED91FC9111970190F0814F
:10277000E02DCD010995A0915403B09155038D2D05
:102780006F2D0E94E61A682F660F680F660F6D0D99
:10279000ED91FC9111970190F081E02DCD0109950B
:1027A000A0915403B09155038E2D6F2D0E94E61A0F
:1027B000682F660F680F660F6E0DED91FC911197F3
:1027C0000190F081E02DCD01099580915403909105
:1027D0005503DC01ED91FC910190F081E02D60E06A
:1027E0000995A0915403B0915503812F6F2D0E943C
:1027F000E61A682F660F680F660F610FED91FC9166
:1028000011970190F081E02DCD010995A09154031D
:10281000B0915503802F6F2D0E94E61A682F660F26
:10282000680F660F600FED91FC9111970190F08198
:10283000E02DCD01099580915403909155030E949C
:102840006A0488E60E949C0080915403909155038D
:10285000DC01ED91FC910190F081E02D62E00995A1
:102860008091540390915503DC01ED91FC9101900E
:10287000F081E02D60E0099580915403909155031B
:102880000E946A04B5CE8B8114E0823709F41CCF14
:1028900018E01ACF8B8113E0823709F415CF15E0C9
:1028A00013CF19E011CF1AE00FCF1BE00DCF1CE0C2
:1028B0000BCF12E009CF09811A8168E071E0C801ED
:1028C0000E94291D892B41F06FE473E0C8010E942A
:1028D000291D892B09F0C8CE62E080E00E946B07B9
:1028E00088E092E00E94250603E010E062E08CE0C0
:1028F0000E946B0783E592E00E94250662E08CE06F
:102900000E946B0768EC70E080E090E00E94930208
:1029100085E192E00E94250668EC70E080E090E09E
:102920000E94930285E192E00E94250668EC70E027
:1029300080E090E00E94930285E192E00E942506EB
:102940006AEF70E080E090E00E949302015011096C
:1029500069F60E941E08CE0101960E94AF08412C24
:10296000512C3201439460E08CE00E94CA010E9425
:10297000E90C882E882349F1A0902804B0902904FE
:10298000C0902A04D0902B04E0902C04F0902D04E9
:1029900000912E0410912F042091300430913104C5
:1029A00040913204509133046091340470913504A5
:1029B00080913604909137040E94190D80E090E0D8
:1029C000892B89F20E940000CECF6DE271E0CE012A
:1029D0004E960E94AE090E941E080E94DF0760E02A
:1029E00080E00E946B0787E192E00E94250662E08A
:1029F00080E00E946B078AE292E00E94250660E96F
:102A000071E0CE0101960E94AE0981E090E00E9443
:102A10009F07222423940E94DF0720921F040E9414
:102A2000C50200910F0410911004209111043091FF
:102A30001204AB01BC01401B510B620B730B809164
:102A40001B0490911C04B0E0A0E084179507A60732
:102A5000B70708F00BC110E080911904181760F453
:102A6000E0911504F0911604E10FF11D62E0808100
:102A70000E942E021F5FF0CF912C80911A049816AD
:102A800008F064C0092D10E0E0911704F0911804DB
:102A9000E00FF11F61E080810E942E02E091170497
:102AA000F0911804E00FF11F60E080810E94CA01DC
:102AB000D301C201092C04C0880F991FAA1FBB1F94
:102AC0000A94D2F75C017C01E094F094312C80915F
:102AD0001904381620F5C32CD12CE0911504F0917F
:102AE0001604EC0DFD1D80810E949E01F6013496B6
:102AF000892B61F4EE0FFF1FED54FC4F8081918113
:102B00008A299B29918380833394E1CFEE0FFF1FA5
:102B1000ED54FC4F808191818E219F21F3CFE09174
:102B20001704F0911804E00FF11F61E080810E940A
:102B3000CA018091170490911804080F191F60E0D2
:102B4000D8018C910E942E02939497CF93EBE92E9B
:102B500093E0F92EF701878D90A1892B31F4148E23
:102B60002FEF3FEF368F258F11A2369633E0EF3EE1
:102B7000F30789F7D12C80911904D81608F051C0B9
:102B8000C12C0D2D10E0000F111F05541C4F20917A
:102B90001A04C21608F043C0D8016D917C910C2C28
:102BA00002C0769567950A94E2F7D29E90011124AF
:102BB0002C0D311DE3EBF3E080E0458D568D24179D
:102BC000350709F488C28F5F36968A30B1F760FF07
:102BD00024C0E3EBF3E090E080E0448D411118C0A5
:102BE000E0911304F0911404E20FF31F4081B6E06A
:102BF000B89FF001B99FF00D1124ED54FC4F448FA4
:102C0000368F258F10A2178E61E00E94D10205C079
:102C1000019636968A30910501F7C394B8CFD394C4
:102C2000AACF10E0F70181A18111182FF6E0EF0E75
:102C3000F11C2FEEE21623E0F206A1F70E94C50276
:102C400060930F0470931004809311049093120406
:102C5000112361F08091D403882341F08091D20345
:102C60009091D3031091CF03019719F010921F0494
:102C700010E06AE070E080E090E00E94930211238F
:102C800009F4C9CE80ED810F8A3098F58D819E813F
:102C90000A97C0F41C871D8641E050E0BE01645FC6
:102CA0007F4FCE0101960E94DF0861E081E00E9423
:102CB0006B074D815E8169817A8188E394E00E948F
:102CC0004801A9CE61E081E10E946B078FE392E0A9
:102CD0000E94250668EC70E080E090E00E9493027C
:102CE00061E081E10E946B0783E592E00E94250686
:102CF00092CE1A3221F58D819E81892B09F48BCEDB
:102D0000E981FA818081882309F485CE61E080E041
:102D10000E946B0783E492E00E94250666E970E05A
:102D200080E090E00E94930281E090E00E949F0783
:102D300060E971E0CE0101960E943F096CCE13322A
:102D400009F069CE8D819E81892B09F4DAC081E07A
:102D500090E00E949F07BE016F5F7F4FCE014E96AD
:102D60000E946408CE0101960E94AF08BE01625E17
:102D70007F4FCE0148960E94A50960E971E0CE011F
:102D800042960E94AE096FE473E0CE0101960E9464
:102D9000AE09BE01685E7F4FCE010C960E94A50968
:102DA000BE016F5F7F4FCE010C960E942908182F3D
:102DB000CE010C960E94AF08CE0101960E94AF088A
:102DC00011112FC009E010E0B801CE0101960E9458
:102DD000E20ABE016F5F7F4FCE0142960E946408F7
:102DE000CE0101960E94AF086FE473E0CE01019618
:102DF0000E94AE09BE016F5F7F4FCE0142960E94D6
:102E00002908D82ECE0101960E94AF08780133E040
:102E1000E30EF11CDD2009F487C0870102311105A2
:102E200099F6CE0142960E94AF08CE0148960E94C4
:102E3000AF0890E080E00E949F0781E090E00E9450
:102E40009F0782E090E00E949F0761E080E00E947F
:102E50006B0788E692E00E94250664EF71E080E04F
:102E600090E00E949302882009F49CC090E080E0EA
:102E70000E949F0781E090E00E949F0782E090E01F
:102E80000E949F0761E080E00E946B078AE792E062
:102E90000E94250664EF71E080E090E00E949302BA
:102EA00060E971E0CE014E960E943F0910925303F3
:102EB00010925203A0902804B0902904C0902A04D4
:102EC000D0902B04E0902C04F0902D0400912E045F
:102ED00010912F042091300430913104409132043C
:102EE000509133046091340470913504809136041C
:102EF000909137040E94190DCE014E960E94AF08A2
:102F00005DCD61E080E00E946B0787E592E00E9462
:102F100025066AEF70E080E090E00E94930281E075
:102F200090E00E949F0777CDBE01685E7F4FCE0183
:102F300001960E94A509BE016E5E7F4FCE010196EB
:102F40000E942908D82ECE0101960E94AF08DD20EC
:102F500009F463CF0E151F05DCF480914D039091A9
:102F60004E0308171907BCF063E080E00E946B076E
:102F700082E691E00E94250664EF71E080E090E037
:102F80000E94930283E090E00E949F070E94DF0767
:102F90008824839446CF60E0C8010E94E3090F5F54
:102FA0001F4FD8CF81E090E00E949F0782E090E021
:102FB0000E949F0761E080E00E946B0789E892E031
:102FC0000E94250660E08CE00E94CA0160E971E081
:102FD000CE014E960E943F0964EF71E080E090E0E0
:102FE0000E94930280915203909153030196909313
:102FF0005303809352030597E4F190E080E00E9430
:103000009F0781E090E00E949F0782E090E00E948D
:103010009F0760E080E00E946B078AE992E00E94CF
:1030200025066AEF70E080E090E00E94930261E084
:1030300080E00E946B078DEA92E00E94250605E081
:1030400010E061E08CE00E946B07C8010E94B607A7
:1030500088EB92E00E94250668EE73E080E090E045
:103060000E9493020150110961F7109253031092CC
:1030700052038091520390915303039791F482E09D
:1030800090E00E949F0762E080E00E946B078AEB5D
:1030900092E00E94250664EF71E080E090E00E94DB
:1030A00093028091520390915303049709F024CF27
:1030B00082E090E00E949F0762E080E00E946B0740
:1030C0008DEC92E00E94250664EF71E080E090E0D4
:1030D0000E94930211CF617098CD1F93FC01992734
:1030E0008827BC01E89411911032E9F3193010F0EF
:1030F0001E30C8F31B3251F01D3249F4689406C0EB
:103100000E949D18610F711D811D911D1191105319
:103110001A30B0F33EF490958095709561957F4F8D
:103120008F4F9F4F1F910895FB01DC0102C0059056
:103130000D9241505040D8F70895592F482F372FFE
:10314000262F660F771F881F991F660F771F881F0E
:10315000991F620F731F841F951F660F771F881FAB
:10316000991F0895BB27FB015527AA27880F991F90
:10317000AA1FA41710F0A41B83955051B9F7A05DA6
:10318000AA3308F0A95DA193009779F7B111B19323
:103190001192CB010C94CC18DC01FC01672F7191CA
:1031A0007723E1F7329704C07C916D93708362912D
:1031B000AE17BF07C8F30895E89409C097FB3EF423
:1031C00090958095709561957F4F8F4F9F4F992374
:1031D000A9F0F92F96E9BB279395F69587957795F2
:1031E0006795B795F111F8CFFAF4BB0F11F460FFB2
:1031F0001BC06F5F7F4F8F4F9F4F16C0882311F00A
:1032000096E911C0772321F09EE8872F762F05C01D
:10321000662371F096E8862F70E060E02AF09A95B8
:10322000660F771F881FDAF7880F9695879597F9AD
:1032300008950E942C190C949D190E948F1938F042
:103240000E94961920F0952311F00C9486190C9485
:103250008C1911240C94D1190E94AE1970F3959F0A
:10326000C1F3950F50E0551F629FF001729FBB277D
:10327000F00DB11D639FAA27F00DB11DAA1F649F19
:103280006627B00DA11D661F829F2227B00DA11DCC
:10329000621F739FB00DA11D621F839FA00D611D52
:1032A000221F749F3327A00D611D231F849F600D73
:1032B000211D822F762F6A2F11249F5750409AF09C
:1032C000F1F088234AF0EE0FFF1FBB1F661F771F28
:1032D000881F91505040A9F79E3F510580F00C94F3
:1032E00086190C94D1195F3FE4F3983ED4F3869588
:1032F00077956795B795F795E7959F5FC1F7FE2B93
:10330000880F911D9695879597F9089597F99F676E
:1033100080E870E060E008959FEF80EC089500245D
:103320000A941616170618060906089500240A942A
:1033300012161306140605060895092E0394000CB0
:1033400011F4882352F0BB0F40F4BF2B11F460FF3F
:1033500004C06F5F7F4F8F4F9F4F089557FD905868
:10336000440F551F59F05F3F71F04795880F97FB49
:10337000991F61F09F3F79F0879508951216130603
:103380001406551FF2CF4695F1DF08C01616170632
:103390001806991FF1CF8695710561050894089567
:1033A000E894BB2766277727CB0197F90895F99909
:1033B000FECF92BD81BDF89A992780B50895262F3A
:1033C000F999FECF1FBA92BD81BD20BD0FB6F8940A
:1033D000FA9AF99A0FBE019608950E942F1AA59F96
:1033E000900DB49F900DA49F800D911D1124089500
:1033F0002F923F924F925F926F927F928F929F9205
:10340000AF92BF92CF92DF92EF92FF920F931F93F2
:10341000CF93DF93CDB7DEB7CA1BDB0B0FB6F894A3
:10342000DEBF0FBECDBF09942A88398848885F84E3
:103430006E847D848C849B84AA84B984C884DF8054
:10344000EE80FD800C811B81AA81B981CE0FD11D38
:103450000FB6F894DEBF0FBECDBFED010895A29F59
:10346000B001B39FC001A39F700D811D1124911D58
:10347000B29F700D811D1124911D08950E94521A52
:103480000C949D190E94961958F00E948F1940F0D3
:1034900029F45F3F29F00C94861951110C94D1192D
:1034A0000C948C190E94AE1968F39923B1F355233B
:1034B00091F3951B550BBB27AA2762177307840747
:1034C00038F09F5F5F4F220F331F441FAA1FA9F3DD
:1034D00035D00E2E3AF0E0E832D091505040E695CB
:1034E000001CCAF72BD0FE2F29D0660F771F881F2C
:1034F000BB1F261737074807AB07B0E809F0BB0B1F
:10350000802DBF01FF2793585F4F3AF09E3F510532
:1035100078F00C9486190C94D1195F3FE4F3983E2F
:10352000D4F3869577956795B795F7959F5FC9F71B
:10353000880F911D9695879597F90895E1E0660F9C
:10354000771F881FBB1F621773078407BA0720F015
:10355000621B730B840BBA0BEE1F88F7E09508957E
:103560000E94B71A6894B1110C94D11908950E9461
:10357000B61988F09F5798F0B92F9927B751B0F036
:10358000E1F0660F771F881F991F1AF0BA95C9F7E7
:1035900014C0B13091F00E94D019B1E008950C949C
:1035A000D019672F782F8827B85F39F0B93FCCF34F
:1035B000869577956795B395D9F73EF49095809564
:1035C000709561957F4F8F4F9F4F0895991B79E0BC
:1035D00004C0991F961708F0961B881F7A95C9F7A3
:1035E00080950895A1E21A2EAA1BBB1BFD010DC0F8
:1035F000AA1FBB1FEE1FFF1FA217B307E407F507A3
:1036000020F0A21BB30BE40BF50B661F771F881F7E
:10361000991F1A9469F760957095809590959B0114
:10362000AC01BD01CF010895052E97FB1EF4009457
:103630000E942B1B57FD07D00E94F21A07FC03D0F3
:103640004EF40C942B1B50954095309521953F4F8F
:103650004F4F5F4F089590958095709561957F4F7E
:103660008F4F9F4F0895EE0FFF1F0590F491E02DAF
:1036700009940F931F93CF93DF938230910510F439
:1036800082E090E0E0914604F091470430E020E0D1
:10369000B0E0A0E0309799F42115310509F44AC053
:1036A000281B390B24303105D8F58A819B8161159F
:1036B000710589F1FB0193838283FE0111C0408172
:1036C00051810281138148175907E0F048175907C3
:1036D00099F4109761F012960C93129713961C931D
:1036E0003296CF01DF91CF911F910F9108950093F2
:1036F000460410934704F4CF2115310551F04217C9
:10370000530738F0A901DB019A01BD01DF01F8017F
:10371000C1CFEF01F9CF9093470480934604CDCFFA
:10372000FE01E20FF31F81939193225031093983F7
:103730002883D7CF2091440430914504232B41F4B2
:1037400020912101309122013093450420934404BB
:1037500020911F01309120012115310541F42DB731
:103760003EB74091230150912401241B350BE09179
:103770004404F0914504E217F307A0F42E1B3F0B1D
:103780002817390778F0AC014E5F5F4F24173507D3
:1037900048F04E0F5F1F50934504409344048193BB
:1037A00091939FCFF0E0E0E09CCFCF93DF93009721
:1037B000E9F0FC01329713821282A0914604B09185
:1037C0004704ED0130E020E01097A1F42081318121
:1037D000820F931F20914404309145042817390724
:1037E00009F061C0F0934504E0934404DF91CF9168
:1037F0000895EA01CE17DF07E8F54A815B819E0153
:1038000041155105B1F7E901FB83EA8349915991CB
:10381000C40FD51FEC17FD0761F4808191810296DA
:10382000840F951FE90199838883828193819B830B
:103830008A83F0E0E0E012968D919C9113970097B7
:10384000B9F52D913C911197CD010296820F931FEE
:1038500020914404309145042817390739F63097F0
:1038600051F51092470410924604B0934504A0937A
:103870004404BCCFD383C28340815181840F951F00
:10388000C817D90761F44E5F5F4F88819981480F4F
:10389000591F518340838A819B81938382832115A1
:1038A000310509F0B0CFF0934704E09346049ECF72
:1038B000FD01DC01C0CF13821282D7CFB0E0A0E0BF
:1038C000E4E6FCE10C94FA198C01009751F4CB0169
:1038D0000E94391B8C01C801CDB7DEB7E0E10C9422
:1038E000161AFC01E60FF71F9C0122503109E2175E
:1038F000F30708F49DC0D901CD91DC911197C6174B
:10390000D70798F0C530D10530F3CE01049786175C
:10391000970708F3C61BD70B2297C193D1936D93DA
:103920007C93CF010E94D51BD6CF5B01AC1ABD0A98
:103930004C018C0E9D1EA0914604B0914704512C61
:10394000412CF12CE12C109731F580914404909199
:1039500045048815990509F05CC04616570608F01D
:1039600058C080911F0190912001009741F48DB7BC
:103970009EB74091230150912401841B950BE817B9
:10398000F90708F055C0F0934504E0934404F901A9
:1039900071836083A0CF8D919C91119712966C904A
:1039A000129713967C901397A815B90559F56C01D9
:1039B00042E0C40ED11CCA14DB0420F1AC014A1948
:1039C0005B09DA011296159780F062827382518347
:1039D0004083D9016D937C93E114F10471F0D70118
:1039E0001396FC93EE93129776CF22968C0F9D1F21
:1039F000F90191838083F301EFCFF0934704E093C3
:103A0000460469CF4816590608F42C017D01D301FC
:103A10009ACFCB010E94391B7C01009749F0AE017F
:103A2000B8010E94201DC8010E94D51B870153CFF9
:103A300010E000E050CF81E090E0F8940C94391D44
:103A4000FB01DC0102C001900D9241505040D8F7BB
:103A50000895FB01DC018D91019080190110D9F3CB
:103A6000990B0895FB01DC0101900D920020E1F714
:063A70000895F894FFCF59
:103A76003333330032323200313131000504030969
:103A86000807063132333435363738392A302300C1
:103A960000480480000000400014005400000000AC
:103AA6000000003B040E04DE04E4030704F403E50F
:103AB60003000000006A022A02C70100000000B0ED
:103AC600074801DE044701626174743A200025202C
:103AD60020004552524F522052454144494E4720FC
:103AE6004441544121006500202020202054494DA6
:103AF60045204C454654000920300064200009202A
:103B0600006820006D200073202020002020205413
:103B1600494D4520455850495245442100092A2A15
:103B26002A2A2057454C434F4D45202A2A2A2A0047
:103B3600525443204E4F5420696E697469616C6912
:103B46007A65640020202053657474696E6720745A
:103B5600696D65210020436F756C646E277420665D
:103B6600696E642052544300202020494E4954492E
:103B7600414C495A494E470009092020204C4F41E3
:103B860044494E47002E0020454E5445522043419D
:103B9600524420544F20555345002A3A2064656C00
:103BA600657465202020233A20656E746572006D69
:103BB60061780020202020202064656C657465648F
:103BC6002020202020200020202020656E74657291
:103BD60020612070696E2100202020434845434B18
:103BE600494E4720434152442000202020202020D7
:103BF600535543434553532100202020494E5641F7
:103C06004C4944204341524421002020205359531B
:103C160054454D204C4F434B454421210020202044
:103C26002020574149542100730020203220656E20
:103C36007472696573206C656674212100202020EA
:103C46003120656E747279206C65667421210000DE
:00000001FF
